:020000040800F2
:100000008824042029030008F13700083B35000844
:10001000513700089D0E00086D41000800000000E7
:100020000000000000000000000000000D39000882
:10003000A10E000800000000F33700080F39000887
:100040004F0300084F0300084F0300084F03000848
:100050004F0300084F0300084F0300084F03000838
:100060004F0300084F0300084F0300084F03000828
:100070004F0300084F0300084F0300084F03000818
:100080004F0300084F0300084F0300084F03000808
:100090004F0300084F0300084F0300084F030008F8
:1000A0004F0300084F0300084F0300084F030008E8
:1000B0004F0300084F030008353900084F030008BC
:1000C0004F0300084F0300084F0300084F030008C8
:1000D0004F0300084F030008514100084F03000878
:1000E0004F0300084F0300084F0300084F030008A8
:1000F0004F0300084F0300084F0300084F03000898
:100100004F0300084F0300084F0300084F03000887
:100110004F0300084F030008793900084F03000817
:100120004F0300084F0300084F0300084F03000867
:100130004F0300084F0300084F0300084F03000857
:100140004F0300084F0300084F0300084F03000847
:100150004F0300084F0300084F0300084F03000837
:100160004F0300084F0300084F0300084F03000827
:100170004F0300084F0300084F0300080000000071
:100180004F0300084F0300084F0300084F03000807
:100190004F0300084F0300084F0300084F030008F7
:1001A0004F0300084F0300084F0300084F030008E7
:1001B0004F0300084F0300084F0300084F030008D7
:1001C0004F0300084F030008000000004F03000821
:1001D0004F0300084F0300084F0300084F030008B7
:1001E0004F0300084F0300084F0300084F030008A7
:1001F0004F0300084F03000800F002F800F084F8F5
:100200000AA090E8000C82448344AAF10107DA4571
:1002100001D100F079F8AFF2090EBAE80F0013F03F
:10022000010F18BFFB1A43F001031847786305005C
:10023000986305000A444FF0000C10F8013B13F0DE
:10024000070408BF10F8014B1D1108BF10F8015B2F
:10025000641E05D010F8016B641E01F8016BF9D122
:1002600013F0080F1EBF10F8014BAD1C0C1B09D179
:100270006D1E58BF01F801CBFAD505E014F8016BEB
:1002800001F8016B6D1EF9D59142D6D3704700007D
:100290000023002400250026103A28BF78C1FBD88F
:1002A000520728BF30C148BF0B607047692900F072
:1002B0006381642900F06081752900F05D816F29F8
:1002C00000F0F481782900F019820368DB0928BF67
:1002D00041F08001632900F04E85732900F05385B9
:1002E000E32900F07185002070471FB537F02BFA25
:1002F00000F096FD04000020002137F0C1F9401CF9
:1003000060601FBD10B510BD00F09AFD1146FFF7EB
:10031000ECFF2FF0B5FC00F0B8FD03B4FFF7F2FFDF
:1003200003BC06F001FA0000DFF83000016841F478
:10033000700101600A4880470A480047FEE7FEE76F
:10034000FEE7FEE7FEE7FEE7FEE7FEE7FEE7FEE785
:1003500005480649044A064B7047000088ED00E056
:1003600019390008F9010008881C04208824042099
:10037000881C0420704753EA020C00F069802DE9C4
:10038000F04B4FF00006002B1FBFB3FA83F503FAC2
:1003900005F424FA05F65E4012BF1643B2FA82F560
:1003A00002FA05F4C5F120051EBF22FA05FC44EA55
:1003B0000C04203556EA044C4FEA144418BF641C60
:1003C0004FF000084FF00009904271EB030C39D355
:1003D000002919BFB1FA81F701FA07F6B0FA80F7E0
:1003E00000FA07F6C7F120071EBF20FA07FC46EA0D
:1003F0000C062037B6FBF4FCA7EB0507103F07F00F
:100400001F0BCBF120060CFA0BFB2CFA06F644BFAF
:10041000B3460026202FA4BF5E464FF0000B5BEAD8
:10042000060C08BF4FF0010B19EB0B09ABFB027C6C
:1004300048EB0608C01B06FB02CC0BFB03CC71EBA0
:100440000C01C1E70B46024641464846BDE8F08B29
:1004500013B54FF000004FF00001AFF30080BDE88E
:100460001C4070470FB4044910B503AA029800F06D
:100470008FFC10BC5DF814FB5C0002200FB47CB54F
:100480000C0009AA009001D02044401E084B7B4478
:1004900069460190089800F044FC05461CB1002014
:1004A000694600F051FC28467CBC5DF814FB000056
:1004B000C108000070B5044685690068C10601D511
:1004C000302600E02026C00707D070BDD4E9012106
:1004D00030469047206A401C20626D1EF6D570BDE4
:1004E00070B5044685690078C00707D170BDD4E9AE
:1004F000012120209047206A401C20626D1EF6D505
:1005000070BD09684A0501D540B27047C905FCD5E0
:1005100000B2704709684A0501D5C0B27047C905E5
:10052000FCD580B2704770B50C460546012A05D04F
:100530002878800600D5EA69002302E0012305E05F
:100540005B1C934202D2E05C0028F9D1A869E6184E
:10055000C01AA861286A184428622846FFF7AAFF33
:1005600004E0D5E9012114F8010B9047B442F8D317
:100570002846FFF7B5FF70BD2DE9F041064600247F
:1005800010687529314616A510D0FFF7BAFF00286C
:1005900002DA404213A507E031688A0701D512A5A7
:1005A00002E0490704D511A5012401E0FFF7B2FFDD
:1005B00000210A2206F1240709E0B0FBF2FCB0FB9F
:1005C000F2F302FB1C00303078541846491C002816
:1005D000F3D123462A463046BDE8F04100F043BB44
:1005E000000000002D0000002B0000002000000093
:1005F0002DE9FF5F15468A460446DFF8AC80F844D3
:100600000027D8E900103E46CDE9001010E03AF886
:1006100016106A4602A800F0E3FB411C07D02178BF
:10062000890603D5E269391891420DD80744761C32
:100630002078800602D5E069B84205DDAE42E6DBEF
:100640003AF816000028E2D1A069C01BA06120463C
:10065000FFF730FFD8E90010CDE90010002017E0C7
:100660003AF818106A4602A800F0BAFBB0F1FF3F52
:1006700081460BD000250DF1080B05E0D4E90121DE
:100680001BF8050090476D1C4D45F7D308F101009C
:10069000B0428046E4DB206A384420622046FFF7FF
:1006A0001FFFBDE8FF9F0000DE56050070B5044641
:1006B00021461068FFF72EFF002104F1240505E014
:1006C00000F007023032C0086A54491C0028F7D1F4
:1006D0002068002307A2050707D5800600D421B1B2
:1006E000E069012304A2401EE0612046BDE870409D
:1006F00000F0B9BA000000003000000070B50446F8
:100700000D4621461068FFF705FF2188090502D52F
:100710000F4A7A4402E00E4A7A440E32002104F174
:10072000240305E000F00F060009965D5E54491CA5
:100730000028F7D120780023000704D5702D02D0BF
:1007400009B1022311322046BDE8704000F08BBA97
:10075000D25505002DE9F05F894604464FF0000AA6
:10076000DFF874B1FB44C0F820A02046E168884758
:10077000002874D0252806D0D4E901219047206AAA
:10078000401C2062F1E700265F462046E16888476A
:100790002028054607DB312D05D2781910F8200CEA
:1007A00008B10643F1E7B00701D526F00406C4F806
:1007B0001CA00027C4F818A02A2D09D0284604F050
:1007C00099F838B304EB8708303DC8F8185019E0A1
:1007D00059F8041B204604EB87029161E1688847C1
:1007E000012F054618D1E069002820DA26F02006FE
:1007F0001DE0D8F8180000EB800005EB4000303811
:10080000C8F818002046E1688847054604F072F8E9
:100810000028EED1012F0AD02E2D08D12046E16804
:1008200088477F1C0546022F46F02006C4DBA069DE
:10083000002803DA404246F00106A061F00701D02B
:1008400026F010066C2D0BD0682D09D04C2D39D018
:100850006A2D35D0742D35D07A2D33D016E038E09E
:10086000E1682F4620468847B842054609D16C2FDB
:1008700026D04FF48060E16806432046884705464D
:1008800004E06C2F1AD04FF4807006430DB3A5F12D
:100890004100192802D8203546F400664A46294608
:1008A000204626604E46FFF701FD80B101280BD09F
:1008B000F61D26F0070000F1080956E74020E4E79E
:1008C0008020D8E70020D6E706F104094DE7284646
:1008D00052E7206ABDE8F09FA855050040EA0103F1
:1008E000024630B59B0710D14FF0013400E008C23A
:1008F00008C91D1B9D4315EAC41FF8D013F0FF0162
:1009000002F8011B0DD01B0AF8E711F8013B002B80
:1009100002F8013B05D011F8013B002B02F8013B26
:10092000F3D130BD10B5431C02E010F8011B71B1CA
:100930008107FAD14FF0013202C88C1A8C4314EAB5
:10094000C211F9D0C01A0A0603D0C01E10BDC01AC9
:1009500010BD0A0401D0801E10BD0902FCD0401E4B
:1009600010BD40EA010370B59B072ED14FF0013650
:10097000042A2AD308C810C99D1B9D43121F15EADB
:10098000C61517D0D8B2E1B2401A50EA056110D1AD
:1009900098B2A1B2401A50EA05410AD123F07F4033
:1009A00024F07F41401A50EA052102D1180EA0EB35
:1009B000146070BDA342DBD018BA21BA884201D9B5
:1009C000012070BD4FF0FF3070BD0AB9002070BD2E
:1009D00010F8013B11F8014B63B1A3420AD1521E3A
:1009E00008D010F8013B11F8014B1BB1A34201D113
:1009F000521EEDD1181B70BD032A40F2308010F05A
:100A0000030C00F0158011F8013BBCF1020F6244A9
:100A100098BF11F801CB00F8013B38BF11F8013B3A
:100A2000A2F1040298BF00F801CB38BF00F8013BE7
:100A300011F0030300F02580083AC0F0088051F857
:100A4000043B083A51F804CBA0E80810F5E7121D62
:100A50005CBF51F8043B40F8043BAFF30080D20781
:100A600024BF11F8013B11F801CB48BF11F8012B4D
:100A700024BF00F8013B00F801CB48BF00F8012B70
:100A8000704710B5203AC0F00B80B1E81850203AFA
:100A9000A0E81850B1E81850A0E81850BFF4F5AF1E
:100AA0005FEA027C24BFB1E81850A0E8185044BFA8
:100AB00018C918C0BDE810405FEA827C24BF51F815
:100AC000043B40F8043B08BF7047D20728BF31F809
:100AD000023B48BF11F8012B28BF20F8023B48BF5A
:100AE00000F8012B70474FF000020429C0F012807B
:100AF00010F0030C00F01B80CCF1040CBCF1020FD1
:100B000018BF00F8012BA8BF20F8022BA1EB0C01A5
:100B100000F00DB85FEAC17C24BF00F8012B00F89B
:100B2000012B48BF00F8012B70474FF0000200B5C1
:100B3000134694469646203922BFA0E80C50A0E800
:100B40000C50B1F12001BFF4F7AF090728BFA0E8AE
:100B50000C5048BF0CC05DF804EB890028BF40F87A
:100B6000042B08BF704748BF20F8022B11F0804FBC
:100B700018BF00F8012B704710B5044610F0030FA2
:100B800008BF11F0030F40F015804FF0013E121F17
:100B9000C0F20E8051F8043BA3EB0E0C2CEA030CC0
:100BA0001CEACE1C08BF40F8043BF0D0A1F10401C0
:100BB00002F10402521E08DB11F8013B002B00F881
:100BC000013BF7D11146FFF78EFF204610BD000014
:100BD0004FF0013C50F8042B51F8043B9A4215D1D8
:100BE000A2EB0C03934313EACC130BD150F8042B64
:100BF00051F8043B9A4209D1A2EB0C03934313EA48
:100C0000CC13E7D04FF00000704700BFD01A01BAF4
:100C1000B1FA81F101F0180122FA01F0CB40C1F1E3
:100C20002001DBB2C0B2C01A2CFA01F3D11A9143F1
:100C300011EAC311E6D1704770477047704770479B
:100C400010B500F0EDF8001D10BD00BF356A0300BF
:100C500010B500F0E9F8006810BD10B5044600F0CA
:100C6000E3F8046010BD2DE9F0470D469946924621
:100C7000044600F124080168880604D5E06921F0E3
:100C80001001216000E00120A84201DD471B00E0C7
:100C90000027A1697A1902EB0900081AA0612078DF
:100CA000C00602D42046FFF705FC002608E0D4E980
:100CB00001211AF806009047206A401C761C206229
:100CC0004E45F4DB2078C0060AD52046FFF7F2FB3C
:100CD00006E0D4E9012130209047206A401C2062C0
:100CE000381EA7F10107F4DC07E0D4E9012118F868
:100CF00005009047206A401C2062281EA5F10105CE
:100D0000F3DC2046FFF7ECFB2078000602D502203A
:100D1000BDE8F0870120FBE701694A1C0261087801
:100D2000704700B58FB0CDE901310021059105492B
:100D30007944CDE9031011466846FFF70BFD0FB06B
:100D400000BD0000E5FFFFFF0A6802F8010B0A6022
:100D50007047D1E900239A4202D2531C0B601070F5
:100D6000704710B5436913B1AFF3008001E0FFF79E
:100D7000DAFB012010BD127800F124010A70002274
:100D80004A700122EDE711684FF0FF32E9E70000F9
:100D9000074B70B50D467B44FFF7C3FF044628465A
:100DA00000F046F810B14FF0FF3070BD204670BD26
:100DB0001727010010B5436913B1AFF3008001E0BC
:100DC000FFF716FC012010BD128800F12401828477
:100DD0000022C2840122EDE711684FF0FF32E9E7FB
:100DE00070B516460C460546FFF72AFF036893F8D0
:100DF0000101012806D0FF2C0FD8185D68B1012031
:100E00002C7070BDD3F807013246214603F2071358
:100E100003442846BDE8704018474FF0FF3070BDCE
:100E200000487047481C042000487047281C0420D4
:100E3000007B00F08000704700487047281C0420A9
:100E40007546FFF7F9FFAE4605006946534620F0A8
:100E50000700854618B020B5FFF77AFABDE82040B4
:100E60004FF000064FF000074FF000084FF0000B66
:100E700021F00701AC46ACE8C009ACE8C009ACE819
:100E8000C009ACE8C0098D46704710B50446AFF301
:100E900000802046BDE81040FFF73FBA11F00EFC7D
:100EA0007047000070B504461D460023B5F5804F1D
:100EB00013D154F822300C480340D1E9000640EA2F
:100EC00006108E6840EA06208E8940EA06408E6948
:100ED0003043034344F8223003E06FF0704044F89D
:100EE0002200002070BD00000000F0CF10B50246C7
:100EF0000023086852F820301B480340D1E9010460
:100F00002043CC6820430C6920434C6920438C6902
:100F10002043CC6920430C6A20434C6A20438C6AEE
:100F20002043CC6A20430C6B20438C6B20434C6BDA
:100F3000204303438868082801D143F04003086830
:100F400042F82030086BB0F5801F05D1086818B151
:100F500010680C6B20431060086818B110684C6B67
:100F600020431060002010BD8004C0FF30B5034650
:100F700014460022601C53F8202002F04042D1E9C0
:100F8000000540EA05108D6840EA05208D8940EA99
:100F90000545088A401E45EA0055087D801E45EA41
:100FA00000608D6928430243601C43F820201868C4
:100FB00000F48010B0F5801F07D1586820F470024B
:100FC000088A401E42EA00525A60002030BD30B507
:100FD0000246002300240868012816D013686FF326
:100FE0000E03D1E901052843CD6828430D69284344
:100FF0004D6928438D692843CD6928430D6A2843EC
:101000004D6A28430343136019E0136823F4F8433F
:10101000D1E9070528434D6A2843034354686FF319
:101020000E04D1E901052843CD6828430D69284302
:101030004D6928438D6928430443136054600020A0
:1010400030BD0246506940EA4100506100207047BF
:1010500018B5034600200090D1E9000420438C68B5
:10106000641E40EA4410CC6840EA44200090009896
:101070001861002018BD000070B503461546002217
:101080000024012D1FD09A6802F070420868401EAB
:101090004E68761E40EA06168868401E46EA00261C
:1010A000C868401E46EA0036088A401E46EA0046E6
:1010B000888A401E46EA0056087E401E46EA0060C6
:1010C00002439A6022E09A6811480240C868401EB4
:1010D0000603888A401E46EA00500243DC6804F09A
:1010E00070440868401E4E68761E40EA06168868FE
:1010F000401E46EA0026088A401E46EA0046087E50
:10110000401E46EA006004439A60DC60002070BD27
:10111000FF0F0FFF70B50446A56D00F089F9064674
:1011200094F83500022808D08020606500BF0020B8
:1011300084F8340000BF012070BD2068006820F0F2
:101140001600216808602068406920F0800021684E
:101150004861206C08B9A06C28B12068006820F0B4
:101160000800216808602068006820F001002168FC
:1011700008600FE000F05CF9801B05280AD92020E8
:10118000606500BF002084F8340000BF032084F8AD
:101190003500D1E72068006800F001000028E9D19F
:1011A00094F85C103F208840A86000BF002084F8BD
:1011B000340000BF012084F835000020BCE7014660
:1011C00091F83500022803D080204865012070473F
:1011D000052081F835000868006820F001000A68E1
:1011E00010600020F3E70146486D7047F8B50246ED
:1011F0000B46002100250024002000BFE4E001266A
:1012000006FA01F51E6806EA0504AC4271D15E6873
:10121000012E08D05E68022E05D05E68112E02D025
:101220005E68122E13D190684F000326BE40B04373
:101230004F00DE68BE4030439060506801268E400B
:10124000B0431E79C6F300168E4030435060D0681C
:101250004F000326BE40B0434F009E68BE4030435F
:10126000D0605E68022E02D05E68122E13D1CF08C5
:1012700002F1200656F827004E07F70E0F26BE4053
:10128000B0434F07FF0E1E69BE403043CF0802F146
:10129000200646F8270010684F000326BE40B043E2
:1012A0001E7906F003064F00BE40304310605E68B2
:1012B00006F08056B6F1805FA8D100BF444E366874
:1012C00046F48046424F3E603E46366806F480460D
:1012D000009600BF00BF3F4E8F0856F827008E07CC
:1012E000370F0F26BE40B0433B4EB24202D100261C
:1012F0002EE068E0394EB24201D1012628E0384E96
:10130000B24201D1022623E0364EB24201D1032679
:101310001EE0354EB24201D1042619E0334EB242EE
:1013200001D1052614E0324EB24201D106260FE06B
:10133000304EB24201D107260AE02F4EB24201D10F
:10134000082605E02D4EB24201D1092600E00A260A
:101350008F073F0FBE4030431E4E8F0846F82700D0
:10136000274E3068A0435E6806F48036B6F5803FAD
:1013700000D12043224E3060361D3068A0435E68A5
:1013800006F40036B6F5003F00D120431C4E361D52
:101390003060361D3068A0435E6806F48016B6F5EE
:1013A000801F00D12043164E08363060361D30684D
:1013B000A0435E6806F40016B6F5001F00D1204376
:1013C0000F4E0C363060491C1029FFF418AFF8BDE1
:1013D0004438024008380140000002400004024046
:1013E00000080240000C02400010024000140240BD
:1013F00000180240001C024000200240002402406D
:10140000003C0140024613690B400BB1012000E093
:101410000020704742690A4012B10A04826100E06C
:10142000816170470AB1816101E00B0483617047FB
:1014300001480068704700008400022003480068EB
:101440000349097808440149086070478400022074
:101450008C00022010B50A48006840F4007008496A
:1014600008600846006840F480700860052000F0BD
:10147000ABFA0F2000F006F800F056FA002010BD7D
:10148000003C024070B504460E4800784FF47A7173
:10149000B1FBF0F00C490968B1FBF0F5284601F00A
:1014A000C5FB08B1012070BD102C07D200222146D7
:1014B000501E00F04AFA0548046001E00120F2E7FE
:1014C0000020F0E78C00022040000220880002206B
:1014D00070B504460E46154600BF94F8A0000128DA
:1014E00001D1022070BD012084F8A00000BF0220BD
:1014F00084F8A10005EB850101EBC50204F1380178
:1015000001EB820034223146FFF7BBFA2A4631460E
:10151000204602F014F801202168486284F8A100F6
:1015200000BF002084F8A00000BF00BFDAE7000081
:1015300070B504460CB9012070BD94F8A10028B91B
:10154000002084F8A000204600F07EF8022084F8F5
:10155000A1002068806920F0704021688861D4E98A
:1015600001010843E168084321690843216889694A
:1015700008432168886120688068324908402168F2
:101580008860A08A050420688068A169294308430F
:10159000216888602068C0682A4908402168C860BE
:1015A000A08B05042068C068216A2943084321688C
:1015B000C860206800692349084021680861A08C40
:1015C000050420680069A16A29430843216808616D
:1015D000206840691B49084021684861A08D0504C6
:1015E00020684069216B294308432168486194F8C9
:1015F0003500050294F8360006042068C06A00F041
:101600007F402168C86246EA050094F83410084318
:101610002168C96A08432168C8622068406B40F0AD
:101620000600216848632068806940F00100216855
:1016300088610020C4F8A400012084F8A1000020E3
:101640007AE7000000F800F010B586B0044600BF4D
:101650004748006840F080604549086008460068D7
:1016600000F08060009000BF00BF00BF4048143809
:10167000006840F400003E491439086008460068DC
:1016800000F40000009000BF00BF00BF08460068E3
:1016900040F0020008600846006800F00200009078
:1016A00000BF00BF00BF0846006840F0200008608F
:1016B0000846006800F02000009000BF00BF00BF97
:1016C0000846006840F0400008600846006800F0E6
:1016D0004000009000BF00BF00BF0846006840F017
:1016E000800008600846006800F08000009000BF9D
:1016F00000BF00BF0846006840F4807008600846DC
:10170000006800F48070009000BF00BF20200190AE
:101710000120029003900320049001A91548FFF7CF
:1017200065FD4FF48060019002200290002003903C
:10173000032004900E20059001A90F48FFF756FDE5
:101740004FF40C60019001A90C48FFF74FFD4FF4D6
:101750007E40019001A90A48FFF748FD40F2F7607A
:10176000019001A90748FFF741FD06B010BD000038
:1017700044380240000402400014024000180240B5
:10178000001C0240002002402DE9F04104460E46B4
:101790001746984600BF94F8A000012802D1022005
:1017A000BDE8F081012084F8A00000BF022084F889
:1017B000A10008EB880000EBC80104F1380000EB41
:1017C00081052E60A86A30446860AF60E86A3844DA
:1017D000E86042462946204601F0B1FE012021681A
:1017E000486284F8A10000BF002084F8A00000BF78
:1017F00000BFD5E72DE9F04104460E46174698464E
:1018000000BF94F8A000012802D10220BDE8F081B9
:10181000012084F8A00000BF022084F8A10008EB9A
:10182000880000EBC80104F1380000EB810528684E
:1018300030446860A8683844E860AE62EF624246AF
:101840002946204601F07BFE01202168486284F889
:10185000A10000BF002084F8A00000BF00BFD5E7B2
:101860004178154A11600178F9B1121D4168116083
:10187000017B0907C27A41EA0261827A41EAC241E8
:10188000427B41EA8241827B41EA4241C27B41EA9A
:101890000241427A41EA0221027A41EA4201027897
:1018A0001143054A0832116005E00021024A121D69
:1018B0001160121D1160704798ED00E000BF00BF7D
:1018C00000BFBFF35F8F00BF00BF00BF05480068C7
:1018D00020F480300349086000200249703108601C
:1018E0007047000024ED00E040F001010D4A116056
:1018F0000C497039096841F480310A4A703A116024
:1019000000BF00BF00BFBFF34F8F00BF00BF00BFCD
:1019100000BF00BF00BFBFF36F8F00BF00BF00BF9D
:101920007047000094ED00E070470146084600282B
:1019300009DB00F01F0301229A4043099B0003F1D9
:10194000E023C3F8002100BF70472DE9F05F804617
:101950000D461646002702F023FC074639462A4664
:10196000334601F00700C0F1070ABAF1040F02D9AB
:101970004FF0040A01E0C0F1070AD14600F1040A61
:10198000BAF1070F02D24FF0000A01E0A0F1030AFA
:10199000D4464FF0010A0AFA09FAAAF1010A0AEA42
:1019A000020A0AFA0CFA4FF0010B0BFA0CFBABF12E
:1019B000010B0BEA030B4AEA0B042146404602F0F6
:1019C000F7FBBDE8F09F000000BF00F00702064BE8
:1019D00019684FF6FF031940044B0B4343EA0221F9
:1019E000014B196000BF70470CED00E00000FA05E4
:1019F00038B5002400BF2048006840F080501E49E0
:101A000008600846006800F08050009000BF00BFEA
:101A10001A48006840F4803018490860FFF708FD54
:101A2000044607E0FFF704FD001BB0F57A7F01D9FB
:101A3000032038BD1148406800F48030B0F5803F85
:101A4000F0D10E48006840F400300C490860FFF700
:101A5000EFFC044607E0FFF7EBFC001BB0F57A7FD4
:101A600001D90320E5E70548406800F40030B0F5EF
:101A7000003FF0D10020DCE7403802400070004019
:101A80002DE9F8430446002600250027A846A9466C
:101A9000207800F0010088B100BFFE48006820F403
:101AA0000000FC49086008460068616B0843F9497A
:101AB000086000BF606B08B94FF00108206800F4AF
:101AC0000020B0F5002F13D1F2488430006820F4D4
:101AD0004010E16B0843EF4984310860E06BB0F5DA
:101AE000801F01D14FF00108E06B08B94FF00109E8
:101AF000206800F48010B0F5801F13D1E5488430D1
:101B0000006820F44000216C0843E24984310860F9
:101B1000206CB0F5800F01D14FF00108206C08B99E
:101B20004FF00109206800F08070B0F1807F01D192
:101B30004FF00108207800F02000202870D100BF6D
:101B4000D4483830006840F08050D24938310860BD
:101B50000846006800F08050009000BF00BFCE48EB
:101B6000006840F48070CC490860FFF761FC0646CD
:101B700007E0FFF75DFC801B642802D90320BDE865
:101B8000F883C548006800F480700028F1D0C1488F
:101B90006830006800F4407585B3208E00F4407012
:101BA000A8422BD0BB486830006820F44075B94883
:101BB0006830006840F48030B649683108600846F3
:101BC000006820F48030086008460560006800F076
:101BD000010098B1FFF72CFC064608E0FFF728FC4F
:101BE000801B41F28831884201D90320C7E7A94808
:101BF00068300068C0F340000028EFD000BF208E9E
:101C000000F44070B0F5407F0BD1A248006820F48A
:101C1000F810A24A216B114008439E49086006E073
:101C200010E09C48006820F4F8109A490860994830
:101C300068300068218EC1F30B0108439549683173
:101C4000086000BF207800F01000102810D100BFFD
:101C500090488430006820F080708E49843108609C
:101C600008460068A16B08438A498431086000BFB8
:101C7000208800F48040B0F5804F09D18548883035
:101C8000006820F44030616E084382498831086062
:101C9000208800F40040B0F5004F09D17D4888301D
:101CA000006820F44020A16E08437A49883108601A
:101CB000206800F48030B0F5803F09D17548883045
:101CC000006820F44010E16E0843724988310860D2
:101CD000206800F40030B0F5003F09D16D4888302D
:101CE000006820F44000216F08436A498831086089
:101CF000207800F04000402809D16648883000680C
:101D000020F00300616C0843624988310860207844
:101D100000F08000802809D15E488830006820F0FB
:101D20000C00A16C08435B4988310860208800F4EE
:101D30008070B0F5807F09D156488830006820F067
:101D40003000E16C0843534988310860208800F472
:101D50000070B0F5007F09D14E488830006820F04F
:101D6000C000216D08434B4988310860208800F489
:101D70008060B0F5806F09D146488830006820F453
:101D80004070616D0843434988310860208800F441
:101D90000060B0F5006F09D13E488830006820F43B
:101DA0004060A16D08433B4988310860208800F4F9
:101DB0008050B0F5805F09D136488830006820F443
:101DC0004050E16D0843334988310860208800F4B1
:101DD0000050B0F5005F09D12E488830006820F42B
:101DE0004040216E08432B4988310860206800F488
:101DF0008000B0F5800F09D126488830006820F0B7
:101E00008060A16F0843234988310860206800F48E
:101E10000010B0F5001F0FD11E488830006820F078
:101E20000060E16F08431B4988310860E06FB0F142
:101E3000006F01D14FF00109207800F00800082858
:101E400001D14FF00109206800F48020B0F5802F07
:101E500009D110488830006820F04070616F084355
:101E60000C4988310860206800F40000B0F5000FCC
:101E70000AD108488830006820F08050D4F88010DB
:101E80000843044988310860206800F08060B0F1A0
:101E9000806F05E00838024000700040FFFCFF0F33
:101EA00008D1CC48006820F00050D4F884100843D2
:101EB000C8490860206800F00060B0F1006F0AD1E6
:101EC000C448001F006820F00070D4F88810084350
:101ED000C049091F0860206800F08050B0F1805FA1
:101EE0000AD1BC48001F006820F08060D4F88C1034
:101EF0000843B849091F0860B8F1010F03D02068F2
:101F0000B0F1007F7ED1B3489038006820F0806047
:101F1000B04990390860FFF78BFA064606E0FFF7F4
:101F200087FA801B642801D9032028E6A948903845
:101F30000068C0F3C0600028F1D1207800F00100F3
:101F4000B8B1606BA8B9A3480C380068C0F301456C
:101F5000A0480C380068C0F303676068800140EA5D
:101F6000054040EA0761207A41EA007099490C393E
:101F70000860206800F40020B0F5002F03D1E06B6A
:101F8000B0F5801F09D0206800F48010B0F5801FE4
:101F900024D1206CB0F5800F20D18E480C38006819
:101FA000C0F301458B480C380068C0F302776068C5
:101FB000800140EA0541207B41EA006040EA077069
:101FC00084490C3908608348001F006820F01F0016
:101FD000616A491E08437F49091F0860206800F0B4
:101FE0008070B0F1807F17D17A480C380068C0F358
:101FF000036578480C380068C0F302776068810197
:10200000208A00E036E041EA004040EA056040EA0C
:10201000077070490C390860206800F00070B0F15A
:10202000007F0DD160688101208A41EA0041207B58
:1020300041EA0061207A41EA007066490C39086083
:1020400064489038006840F08060624990390860C8
:10205000FFF7EEF9064606E0FFF7EAF9801B642871
:1020600001D903208BE55B4890380068C0F3C0605D
:102070000028F1D0B9F1010F7ED1564890380068A0
:1020800020F08050534990390860FFF7D1F9064697
:1020900006E0FFF7CDF9801B642801D903206EE527
:1020A0004C4890380068C0F340700028F1D1206897
:1020B00000F40020B0F5002F01D1E06B38B12068AA
:1020C00000F48010B0F5801F22D1206C00BB414885
:1020D00008380068C0F301453E4808380068C0F37E
:1020E00002776069800140EA0541207E41EA006094
:1020F00040EA0770374908390860081D006820F475
:10210000F851A06A401E41EA00203249091F0860C8
:10211000206800F40010B0F5001F19D1E06FB0F195
:10212000006F15D12B4808380068C0F303652948B3
:1021300008380068C0F3027760698101208C41EAA9
:10214000004040EA056040EA07702249083908600B
:10215000207800F00800082820D11E4808380068C0
:10216000C0F303651B4808380068C0F30147606985
:10217000800140EA074000E02AE040EA0561207F54
:1021800041EA0070134908390860081D006820F40E
:102190004030E16A08430F49091F08600D48903834
:1021A000006840F080500B4990390860FFF740F913
:1021B000064606E0FFF73CF9801B642801D903209E
:1021C000DDE4044890380068C0F340700028F1D086
:1021D0000020D4E49038024070B504460D46002635
:1021E0000CB9012070BD5C48006800F00F00A842E7
:1021F0000ED25948006820F00F0028435649086065
:102200000846006800F00F00A84201D00120E9E76D
:10221000207800F0020002281DD1207800F0040090
:10222000042805D14D48006840F4E0504B4908604F
:10223000207800F00800082805D14848006840F4DC
:102240006040464908604548006820F0F000A168F9
:10225000084342490860207800F0010090B36068AC
:10226000012807D13D4808380068C0F34040A0B9B4
:102270000120B7E76068022807D1384808380068AD
:10228000C0F3406048B90120ACE734480838006822
:10229000C0F3400008B90120A4E73048006820F0EE
:1022A0000300616808432D490860FFF7C1F806463E
:1022B00009E0FFF7BDF8801B41F28831884202D95E
:1022C00003208FE707E02548006800F00C006168F4
:1022D000B0EB810FEDD12048006800F00F00A8425C
:1022E0000ED91D48006820F00F0028431A490860E5
:1022F0000846006800F00F00A84201D0012071E7F5
:10230000207800F00400042807D11448006820F465
:10231000E050E168084311490860207800F00800A7
:10232000082808D10D48006820F46040216940EA7F
:10233000C1000A49086000F03FF808490968C1F384
:102340000311074A515CC840064908600648006806
:10235000FFF798F8002045E7003C024008380240AB
:10236000B07703084000022088000220014800687E
:10237000704700004000022000B5FFF7F7FF044956
:102380000968C1F38221034A515CC84000BD0000C6
:1023900008380240C077030800B5FFF7E7FF04499B
:1023A0000968C1F34231034A515CC84000BD0000D6
:1023B00008380240C07703082DE9F04700240025C3
:1023C0000026A1462548006800F00C0020B1042832
:1023D00005D008283AD105E0DFF8849039E0DFF82D
:1023E000849036E01D48001F006800F03F041B4841
:1023F000001F006800F4800078B11A481749091FCF
:102400000968C1F38811A0FB017001462246002330
:102410003846FDF7B0FF05460EE011480F49091F89
:102420000968C1F38811A0FB017001462246002310
:102430003846FDF7A0FF05460848001F0068C0F3B6
:102440000140401C4600B5FBF6F902E0DFF81090B1
:1024500000BF00BF4846BDE8F087000008380240D2
:102460000024F40040787D01F8B5044600270CB93B
:102470000120F8BD207800F00100002871D0F94853
:10248000006800F00C0004280DD0F648006800F049
:102490000C00082813D1F348001F006800F48000E6
:1024A000B0F5800F0BD1EF4808380068C0F340400A
:1024B000002869D06068002866D10120D9E700BFF4
:1024C0006068B0F5803F08D1E6480838006840F4FD
:1024D0008030E449083908602EE0606868B9E14856
:1024E0000838006820F48030DE4908390860084662
:1024F000006820F4802008601EE06068B0F5A02F1E
:102500000DD1D8480838006840F48020D5490839F2
:1025100008600846006840F4803008600CE0D1484C
:102520000838006820F48030CE4908390860084631
:10253000006820F48020086000BF606890B1FEF75A
:1025400077FF054606E0FEF773FF401B642801D9BC
:1025500003208EE7C34808380068C0F340400028D5
:10256000F1D011E0FEF764FF054606E0FEF760FFDC
:10257000401B642801D903207BE7BA48083800686B
:10258000C0F340400028F1D1207800F0020002287A
:1025900069D1B448006800F00C0058B1B148006837
:1025A00000F00C0008281CD1AE48001F006800F4A1
:1025B0008000B0B9AB4808380068C0F3400020B1D3
:1025C000E068012801D0012053E7A64808380068D8
:1025D00020F0F800216940EAC100A24908390860EA
:1025E00041E0E06828B39F480838006840F00100E7
:1025F0009C4908390860FEF71BFF054606E0FEF718
:1026000017FF401B022801D9032032E795480838FC
:102610000068C0F340000028F1D0924808380068F4
:1026200020F0F800216940EAC1008E4908390860AD
:1026300019E08C480838006820F001008949083901
:102640000860FEF7F5FE054606E0FEF7F1FE401BCA
:10265000022801D903200CE7824808380068C0F33B
:1026600040000028F1D1207800F00800082836D179
:102670006069D0B17B486C30006840F00100794956
:102680006C310860FEF7D4FE054606E0FEF7D0FE8A
:10269000401B022801D90320EBE672486C30006829
:1026A000C0F340000028F1D019E06E486C3000689B
:1026B00020F001006B496C310860FEF7B9FE054659
:1026C00006E0FEF7B5FE401B022801D90320D0E644
:1026D00064486C300068C0F340000028F1D12078D5
:1026E00000F00400042874D15E483830006800F01F
:1026F000805080B900BF5B483830006840F080509F
:102700005849383108600846006800F08050009051
:1027100000BF00BF01275448006800F48070B0B9C2
:102720005148006840F480704F490860FEF780FE11
:10273000054606E0FEF77CFE401B642801D9032015
:1027400097E64948006800F480700028F2D000BF86
:10275000A068012808D143486830006840F00100B3
:102760004049683108602DE0A06868B93D4868308C
:10277000006820F001003B496831086008460068A5
:1027800020F0040008601DE0A06805280DD1354840
:102790006830006840F0040032496831086008463B
:1027A000006840F0010008600CE02E4868300068C6
:1027B00020F001002B49683108600846006820F0CD
:1027C0000400086000BFA068A8B1FEF731FE05460E
:1027D00009E02EE0FEF72CFE401B41F288318842D2
:1027E00001D9032045E61F4868300068C0F3400067
:1027F0000028EFD013E0FEF71BFE054608E0FEF7C9
:1028000017FE401B41F28831884201D9032030E68F
:10281000144868300068C0F340000028EFD1012F51
:1028200007D110483830006820F080500D49383109
:102830000860A069002854D00A48006800F00C0025
:10284000082867D0A06902284CD1064808380068DB
:1028500020F08070034908390860FEF7E9FD05465D
:102860000BE000000838024000700040FEF7E0FD79
:10287000401B022801D90320FBE53F480068C0F354
:1028800040600028F2D1D4E907010843616A40EAB8
:1028900081110122A06AC2EB500041EA00412C20C4
:1028A000005D41EA00613020005D41EA007032497C
:1028B000091D0860081F006840F08070091F08604B
:1028C000FEF7B6FD054606E0FEF7B2FD401B022806
:1028D00001D90320CDE528480068C0F340600028F6
:1028E000F2D047E02448006820F080702249086058
:1028F000FEF79EFD054606E0FEF79AFD401B022806
:1029000001D90320B5E51C480068C0F340600028E9
:10291000F2D12FE01848001D0668A069012827D0D1
:1029200006F48001E069814222D106F03F01206A6D
:1029300081421DD147F6C0703040616AB0EB811F03
:1029400016D106F440310122A06AC2EB5000B1EB6F
:10295000004F0DD106F070612C20005DB1EB006FCF
:1029600006D106F0E0413020005DB1EB007F01D0E0
:1029700001207EE500207CE50038024070B5044669
:102980000D460CB9012070BD94F82C0028B9002028
:1029900084F82D00204600F011F8022084F82C0065
:1029A000211D2068FEF713FB2946D4E90002FEF73B
:1029B00063FB012084F82C000020E4E710B586B00A
:1029C000044600BF3E48006840F001003C490860F2
:1029D0000846006800F00100009000BF00BF00BF83
:1029E00037480838006840F0040035490839086065
:1029F0000846006800F00400009000BF00BF00BF60
:102A00000846006840F0080008600846006800F0CA
:102A10000800009000BF00BF00BF0846006840F0FB
:102A2000100008600846006800F01000009000BF29
:102A300000BF00BF0846006840F02000086008465C
:102A4000006800F02000009000BF00BF00BF0846F3
:102A5000006840F0400008600846006800F0400050
:102A6000009000BF00BF0D200190022002900120C5
:102A70000390032004900C20059001A91148FEF753
:102A8000B5FB4CF20370019001A90F48FEF7AEFBB5
:102A90004FF68370019001A90C48FEF7A7FB4FF693
:102AA0003F00019001A90A48FEF7A0FB48F2371049
:102AB000019001A90748FEF799FB06B010BD000080
:102AC0003838024000080240000C0240001002406A
:102AD000001402400018024070B504460D4694F8F8
:102AE0002C00022800D170BD022084F82C00294659
:102AF0002068FEF7A6FA012084F82C000020F2E7F7
:102B000070B504460D46164694F82C00022800D1F4
:102B100070BD022084F82C00324629462068FEF75A
:102B200097FA2868022803D1052084F82C0002E0D7
:102B3000012084F82C000020EAE770B504460E4618
:102B400015460CB9012070BD94F8450028B9002045
:102B500084F84400204600F01DF804F108012068C4
:102B6000FEF7C4F93146A2682068FEF7FFF929464E
:102B7000E36AD4E90102FEF795F9A168206850F8EC
:102B8000210040F00100A268216841F822000020E5
:102B9000D9E7000010B586B0044600BF20480068A1
:102BA00040F001001E4908600846006800F001007E
:102BB000009000BF00BF00BF19480838006840F00F
:102BC00008001749083908600846006800F0080046
:102BD000009000BF00BF00BF0846006840F0100032
:102BE00008600846006800F01000009000BF00BFB9
:102BF0004EF2B37001900220029001200390022057
:102C000004900C20059001A90648FEF7EFFA4FF654
:102C10008070019001A90448FEF7E8FA06B010BDE3
:102C200038380240000C02400010024070B50446E3
:102C30002546681EB0F1807F01D301200FE0681E99
:102C40004FF0E02148610F214FF0FF3001F0B0FA62
:102C500000204FF0E021886107200861002070BD4E
:102C600070477047704710B504460CB9012010BD7D
:102C700094F83D0028B9002084F83C00204600F07C
:102C80000DF8022084F83D00211D206800F07CFE34
:102C9000012084F83D000020E9E7000038B5044633
:102CA0000E492068884217D100BF00BF0C48006859
:102CB00040F010000A4908600846006800F0100063
:102CC000009000BF00BF00BF032201213620FEF7A5
:102CD0003CFE3620FEF729FE38BD00000010004003
:102CE0004038024001460868C06840F001000B68A7
:102CF000D86008688068084B00EA0302062A08D0FA
:102D0000B2F5803F05D00868006840F001000B680C
:102D1000186000207047000007000100704710B5E0
:102D2000044620680069C0F34000D8B12068C0683C
:102D3000C0F34000B0B16FF00200216808610120CB
:102D400020772068806900F0030018B12046FFF763
:102D5000E5FF05E0204600F0BEF8204600F0BCF894
:102D60000020207720680069C0F38000D8B1206877
:102D7000C068C0F38000B0B16FF004002168086142
:102D8000022020772068806900F4407018B1204646
:102D9000FFF7C4FF05E0204600F09DF8204600F054
:102DA0009BF80020207720680069C0F3C000D8B1EC
:102DB0002068C068C0F3C000B0B16FF0080021689F
:102DC0000861042020772068C06900F0030018B172
:102DD0002046FFF7A3FF05E0204600F07CF82046E0
:102DE00000F07AF80020207720680069C0F3001016
:102DF000D8B12068C068C0F30010B0B16FF0100007
:102E000021680861082020772068C06900F44070BC
:102E100018B12046FFF782FF05E0204600F05BF87E
:102E2000204600F059F8002020772068006900F063
:102E3000010058B12068C06800F0010030B16FF0A7
:102E4000010021680861204600F048F82068006908
:102E5000C0F3C01058B12068C068C0F3C01030B1D2
:102E60006FF08000216808612046FFF7FAFE2068B5
:102E70000069C0F3002058B12068C068C0F3C010DA
:102E800030B16FF48070216808612046FFF7E8FEDA
:102E900020680069C0F3801058B12068C068C0F392
:102EA000801030B16FF0400021680861204600F0CA
:102EB00021F820680069C0F3401058B12068C0684C
:102EC000C0F3401030B16FF0200021680861204647
:102ED000FFF7C8FE10BD70477047000010B50446EC
:102EE00003492068884202D101202CF01DF810BD52
:102EF000001000407047704710B504462068006815
:102F000020F49070216808602068806820F001003B
:102F1000216888602068806800F04000402817D150
:102F20002068806820F0400021688860E06E78B1F9
:102F30000020E16E0865E06EFEF7ECF840B1E06E4F
:102F4000FEF751F9202803D11020E067032010BDBF
:102F50000020A4F85A000F202168086220688069C8
:102F600040F00800216888612020A0670020EEE77B
:102F700010B504460CB9012010BD242060672068FC
:102F8000006820F0010021680860002021680860C6
:102F90002168486021688860204600F0A9F9002077
:102FA000E0676067A06700BF84F8700000BF00BFE3
:102FB000E2E7000070B504463949206888426DD1C7
:102FC000FEF736FA054637480068281A64280BD8F9
:102FD000354800884FF6FF71884208DA3248008889
:102FE000401C3149088002E001202F4908802D480B
:102FF00005602068C06900F00800082806D1216833
:1030000008622A480068401C284908602068C06996
:1030100000F00200022806D12168086224480068F6
:10302000401C234908602068C06900F0040004289F
:1030300006D1216808621F480068401C1D490860CD
:103040002068C06900F0010038B1012021680862E1
:1030500019480068401C1849086013480088142863
:1030600013DB05F1C800154908602068006820F0EE
:103070002000216808602068806820F00100216835
:1030800088602046FFF738FF70BD2046FFF734FF09
:1030900001220B490B4800F08BF900BF00BFF3E79A
:1030A000004400407C0002208000022068000220D2
:1030B0006C000220700002207400022078000220C0
:1030C00062000220083802202DE9F04704462068FB
:1030D000C569206806682068876840F60F0005EA21
:1030E0000008B8F1000F0CD105F0200048B106F03F
:1030F000200030B1206E10B12046216E8847BDE817
:10310000F087B8F1000F7DD007F0010018B906F480
:1031100090700028F7D005F0010048B106F48070E7
:1031200030B1012021680862E06F40F00100E067E3
:1031300005F0020048B107F0010030B1022021681B
:103140000862E06F40F00400E06705F0040048B159
:1031500007F0010030B1042021680862E06F40F000
:103160000200E06705F0080060B106F0200010B929
:1031700007F0010030B1082021680862E06F40F0DC
:103180000800E06705F4006050B106F0806038B1D7
:103190004FF4006021680862E06F40F02000E067B3
:1031A000E06F80B305F0200038B106F0200020B1B8
:1031B000206E10B12046216E8847D4F87C9020689C
:1031C000806800F04000402802D009F0280030B3A9
:1031D000204600F004FD2068806800F04000402890
:1031E00019D12068806820F0400021688860E06E76
:1031F00068B12148E16E0865E06EFDF7E0FF10B1AF
:10320000E06E01E011E00FE0016D88470CE0204620
:10321000FFF7D0FE08E02046FFF7CCFE04E0204692
:10322000FFF7C8FE0020E06769E705F4801050B1A1
:1032300007F4800038B14FF48010216808622046FE
:10324000FFF759FE5BE705F0800040B106F0800013
:1032500028B1606E10B12046616E88474FE705F0D7
:10326000400030B106F0400018B1204600F0C8FC24
:1032700045E700BF43E70000C73B000810B5044620
:103280000CB9012010BDA06900B100E000BF606F63
:1032900028B9002084F87000204600F02BF8242084
:1032A00060672068006820F00100216808602046FF
:1032B00000F020FD012800D1E4E7606A10B120464B
:1032C00000F0CEFB2068406820F490402168486000
:1032D0002068806820F02A002168886020680068E3
:1032E00040F0010021680860204600F035FCC9E785
:1032F0007047000010B586B004462A49206888420D
:103300004ED100BF00BF2848006840F40030264975
:1033100008600846006800F40030009000BF00BF5D
:1033200000BF00BF00BF20481038006840F0010017
:103330001D49103908600846006800F0010000903F
:1033400000BF00BF00BF00BF00BF0846006840F0DC
:10335000010008600846006800F00100009000BF0E
:1033600000BF00BF042001900220029001200390C2
:10337000022004900720059001A90C48FDF736FFB4
:10338000082001900720059001A90848FDF72EFFAD
:103390002620FEF7CAFA032211462620FEF7D5FAA8
:1033A00006B010BD0044004040380240000002401A
:1033B00010B50346986F202865D101B10AB90120E4
:1033C00010BD00BF93F87000012801D10220F7E77B
:1033D000012083F8700000BF5965A3F85820A3F8B6
:1033E0005A200020186600BF9868B0F5805F0AD1A7
:1033F000186920B940F2FF10A3F85C0020E0FF201C
:10340000A3F85C001CE0986848B9186918B9FF2057
:10341000A3F85C0014E07F20A3F85C0010E098683B
:10342000B0F1805F09D1186918B97F20A3F85C005A
:1034300006E03F20A3F85C0002E00020A3F85C0057
:1034400000BF0020D867222098671868806840F085
:1034500001001C68A0609868B0F5805F04D118690D
:1034600010B90A48186601E00948186600BF002034
:1034700083F8700000BF1868006840F490701C6802
:10348000206000209CE702209AE70000213C000811
:103490008D3C000810B504462049206888423CD184
:1034A00001221F491F48FFF783FF2068C06900F011
:1034B0000800082806D1216808621B480068401CE3
:1034C000194908602068C06900F00200022806D18E
:1034D0002168086215480068401C1449086020688B
:1034E000C06900F00400042806D121680862104871
:1034F0000068401C0E4908602068C06900F00100A7
:1035000038B10120216808620A480068401C094956
:1035100008600349087832F06FFE10BD0044004097
:103520006200022008380220680002206C0002209D
:10353000700002207400022070470FF0BFF8F0B551
:103540008E880768FF68C7F30B473E44330406685C
:103550008436802707FB0266766806F470470668A3
:1035600084364FF0800C0CFB026677600E680768AB
:10357000FF68C7F30B473E44761C1E430768843739
:103580000CFB02777E608E890768FF68C7F30A0725
:103590003E44330406688436802707FB0266B6681B
:1035A00006F47047066884360CFB0266B7608E68C6
:1035B0000768FF68C7F30A073E44761C46EA03071C
:1035C000066884360CFB0266B7600668843680277E
:1035D00007FB0266366926F00707066884360CFB8F
:1035E000026637610F69066884360CFB0266376134
:1035F0003126765C33023226765C34040E7E350644
:1036000006688436802707FB0266B66900270668CD
:1036100084360CFB0266B76191F830601E43264386
:1036200046EA0507066884360CFB0266B761066841
:103630008436802707FB0266766926F0FF07066856
:1036400084360CFB026677614F69066884360CFB92
:103650000266776106688436802707FB0266F66992
:1036600040F20777BE43076884370CFB0277FE61A0
:10367000D1E907763743066884360CFB0266F761AA
:1036800006688436802707FB0266B66A002706684C
:1036900084360CFB0266B7624F6A066884360CFB00
:1036A0000266B7620E690EB9042313E00E69012E9B
:1036B00001D103230EE00E69042E08D00E69022EFC
:1036C00005D00E69032E02D00E69072E01D1022308
:1036D00000E0012306688436802707FB0266F66A4D
:1036E00006F0E027066884364FF0800C0CFB02667B
:1036F000F762D1E90076F61B5E43F61C0F8D5F433F
:1037000046EA0747066884360CFB0266F7620668DD
:103710008436802707FB0266366BF70AFF020668CD
:1037200084360CFB02663763CF6A066884360CFB6E
:103730000266376306688436D701F65946F00107FA
:10374000066884364FEAC21C46F80C70F0BD0000D3
:1037500000BF002201211848FDF764FE00BF17A03A
:10376000FCF780FE4FF47A7006F00CFD19A0FCF710
:1037700079FE4FF47A7006F005FD00BF00BF00BF70
:1037800000BF00BFBFF34F8F00BF00BF00BF164890
:10379000006800F4E06015490843001D1249086004
:1037A00000BF00BF00BFBFF34F8F00BF00BF00BF0F
:1037B00000BF00BFFDE70000000402404D656D2022
:1037C000416363657373204572726F7221210D0A24
:1037D00000000000536F6674205265736574696E53
:1037E000672E2E2E0D0A00000CED00E00000FA05F9
:1037F0007047704710B50023234C236000BF00BF03
:1038000000BFBFF34F8F00BF00BF00BF231F18686A
:10381000C0F34E3100BFC0F3C90200BF43F6E073EE
:1038200003EA41134FF0404404EA82742343174CE7
:10383000236000BF00BF131EA2F10102EED10B1ED8
:10384000A1F10101E7D100BF00BF00BFBFF34F8F5F
:1038500000BF00BF00BF0C4B703B1B6843F48033BC
:10386000094C703C236000BF00BF00BFBFF34F8F07
:1038700000BF00BF00BF00BF00BF00BFBFF36F8F1E
:1038800000BF00BF00BF10BD84ED00E060EF00E0AE
:1038900000BF00BF00BFBFF34F8F00BF00BF00BF1E
:1038A00000BF00BF00BFBFF36F8F00BF00BF00BFEE
:1038B00000201449086000BF00BF00BFBFF34F8F56
:1038C00000BF00BF00BF00BF00BF00BFBFF36F8FCE
:1038D00000BF00BF00BF0C48006840F400300A4938
:1038E000086000BF00BF00BFBFF34F8F00BF00BF25
:1038F00000BF00BF00BF00BFBFF36F8F00BF00BF9E
:1039000000BF704750EF00E014ED00E0704710B5C5
:10391000FDF794FD10BD00000548006840F47000FC
:10392000034908604FF00060014980390860704722
:1039300088ED00E010B50E480068C06800F0010096
:1039400078B10C4908698047002009490968486234
:1039500000BF642006490968C86264210448C16048
:1039600000BF6FF0010002490968086110BD000046
:10397000783A02200C01022010B50248FFF7CFF977
:1039800010BD0000383A022010B50268294B984259
:103990000ED0B0F1804F0BD0274B984208D0274B68
:1039A000984205D0264B984202D0264B984203D12C
:1039B00022F070024B681A431E4B984220D0B0F19F
:1039C000804F1DD01C4B98421AD01C4B984217D0E8
:1039D0001B4B984214D01B4B984211D01A4B984263
:1039E0000ED01A4B98420BD0194B984208D0194B65
:1039F000984205D0184B984202D0184B984203D1F8
:103A000022F44072CB681A4322F080034C6943EAE7
:103A1000040202608B68C3620B688362054B9842A4
:103A200002D0084B984201D10B6903630123436123
:103A300010BD0000000001400004004000080040EC
:103A4000000C0040000401400040014000440140DF
:103A50000048014000180040001C004000200040C9
:103A600090F8241001F0010139B10168496821F48E
:103A70000031826A11430268516090F8241001F00D
:103A80000201022907D10168496821F48031C26A24
:103A900011430268516090F8241001F004010429D8
:103AA00007D10168496821F48021026B1143026843
:103AB000516090F8241001F00801082907D101682D
:103AC000496821F40041426B11430268516090F84B
:103AD000241001F01001102907D10168896821F430
:103AE0008051826B11430268916090F8241001F0BC
:103AF0002001202907D10168896821F40051C26B97
:103B000011430268916090F8241001F040014029AF
:103B100013D10168496821F48011026C11430268D5
:103B20005160016CB1F5801F07D10168496821F42B
:103B3000C001426C11430268516090F8241001F0FA
:103B40008001802907D10168496821F40021826C35
:103B5000114302685160704738B504460020E067A1
:103B6000FDF766FC05462068006800F0080008289C
:103B70000CD16FF07E402B4600224FF400110090D4
:103B8000204600F08BFA08B1032038BD2068006899
:103B900000F0040004280CD16FF07E402B46002278
:103BA0004FF480010090204600F078FA08B103201D
:103BB000EBE720206067A06700BF002084F870005A
:103BC00000BF00BFE1E770B50546AC6B0020A4F86C
:103BD0005A00A4F852002046FFF7ECF970BD0168C6
:103BE000096821F49071026811600168896821F008
:103BF0000101026891602021816700210166704700
:103C000010B504462068006820F040002168086074
:103C100020206067002060662046FFF78DFC10BD05
:103C20002DE9F0410446B4F85C70A06F222825D13C
:103C30002068406A86B2656D06EA07002880606DDC
:103C4000801C6065B4F85A00401EA4F85A00B4F80D
:103C50005A00C8B92068006820F490702168086094
:103C60002068806820F00100216888602020A0671B
:103C7000002020662046FFF70DFC05E020688069E3
:103C800040F0080021688861BDE8F08170B5044605
:103C9000B4F85C60A06F222825D12068406A85B204
:103CA000F0B22840616D0870606D401C6065B4F82A
:103CB0005A00401EA4F85A00B4F85A00C8B9206847
:103CC000006820F49070216808602068806820F007
:103CD0000100216888602020A0670020206620461F
:103CE000FFF7D8FB05E02068806940F008002168F4
:103CF000886170BD2DE9F04704460027BA46216966
:103D0000A068084361690843E16940EA0108206846
:103D10000068D649084040EA080021680860206829
:103D2000406820F44050E168084321684860D4F8B6
:103D30001880206A40EA08082068806820F4306013
:103D400040EA08002168886000BFC94920688842AD
:103D500016D1C848006800F0030030B1012808D02F
:103D6000022804D0032808D105E0012507E0022538
:103D700005E0042503E0082501E0102500BFC9E0A7
:103D8000BD492068884216D1BA48006800F00C008E
:103D900030B1042808D0082804D00C2808D105E048
:103DA000002507E0022505E0042503E0082501E0E1
:103DB000102500BFAEE0B1492068884216D1AD4859
:103DC000006800F0300030B1102808D0202804D05E
:103DD000302808D105E0002507E0022505E004258C
:103DE00003E0082501E0102500BF93E0A449206806
:103DF000884216D19F48006800F0C00030B14028CA
:103E000008D0802804D0C02808D105E0002507E0AC
:103E1000022505E0042503E0082501E0102500BF88
:103E200078E098492068884219D19248006800F4E7
:103E3000407048B1B0F5807F0AD0B0F5007F05D062
:103E4000B0F5407F08D105E0002507E0022505E038
:103E5000042503E0082501E0102500BF5AE08A4947
:103E60002068884219D18348006800F4406048B156
:103E7000B0F5806F0AD0B0F5006F05D0B0F5406F97
:103E800008D105E0012507E0022505E0042503E04F
:103E9000082501E0102500BF3CE07C4920688842ED
:103EA00019D17448006800F4405048B1B0F5805F03
:103EB0000AD0B0F5005F05D0B0F5405F08D105E04D
:103EC000002507E0022505E0042503E0082501E0C0
:103ED000102500BF1EE06E492068884219D1654850
:103EE000006800F4404048B1B0F5804F0AD0B0F50A
:103EF000004F05D0B0F5404F08D105E0002507E0A0
:103F0000022505E0042503E0082501E0102500BF97
:103F100000E0102500BFE069B0F5004F54D1092D35
:103F20003AD2DFE805F005101B39243939392F0062
:103F3000FEF722FA06467000616800EB5100B0FB04
:103F4000F1F087B22BE0FEF727FA064670006168B1
:103F500000EB5100B0FBF1F087B220E04D49606802
:103F600001EB50006168B0FBF1F087B217E0FEF79B
:103F700023FA06467000616800EB5100B0FBF1F0D7
:103F800087B20CE04FF48031606801EB500061684B
:103F9000B0FBF1F087B202E04FF0010A00BF00BFB2
:103FA000102F0ED3B7F5803F0BD24FF6F07007EA13
:103FB0000009C7F3420049EA00092068C0F80C90E4
:103FC0004DE04FF0010A4AE0092D3AD2DFE805F052
:103FD00005101B39243939392F00FEF7CDF9064673
:103FE000606806EB50006168B0FBF1F087B22BE02F
:103FF000FEF7D2F90646606806EB50006168B0FB38
:10400000F1F087B220E02449606801EB500061685C
:10401000B0FBF1F087B217E0FEF7CEF90646606814
:1040200006EB50006168B0FBF1F087B20CE04FF492
:104030000041606801EB50006168B0FBF1F087B2AD
:1040400002E04FF0010A00BF00BF102F05D3B7F503
:10405000803F02D22068C76001E04FF0010A0020D3
:10406000206660665046BDE8F0870000F369FFEF08
:1040700000100140903802400044004000480040D9
:10408000004C004000500040001401400078004007
:10409000007C00400048E8010024F4002DE9F041D4
:1040A00004460D4617469846069E45E0701C0028BB
:1040B00042D0FDF7BDF9A0EB0800B04200D8B6B978
:1040C0002068006820F4D07021680860206880684B
:1040D00020F001002168886020206067A06700BF91
:1040E000002084F8700000BF0320BDE8F081206844
:1040F000006800F00400F8B12068C069C0F3C02077
:10410000D0B14FF40060216808622068006820F494
:10411000D070216808602068806820F00100216864
:10412000886020206067A067E06700BF002084F8F7
:10413000700000BF0320D8E72068C0692840A8426B
:1041400001D1012000E00020B842AFD00020CCE730
:1041500010B504480068401C024908600248FEF798
:10416000B3FF10BD64000220083802200EF0A6FA4A
:1041700003B401984100009850EAC12018BF042000
:104180004A0D18BF40F0010040F2FF72B2EB515FE0
:1041900008BF40F00200012808BF052002B07047A8
:1041A00002480068C0F30220704700000CED00E0F8
:1041B00010B5002804DB0A07130E054A135406E065
:1041C0000A07140E034A00F00F031B1FD45410BD3E
:1041D00000E400E018ED00E010B529499FED261B32
:1041E0002DED020B84B0059820F000408842D8BF26
:1041F0009DED040B2DDD2349884209D1049840B977
:104200004FF00100FCF729FD00F03EFB06B010BDA9
:1042100005DB9DED040B30EE000B06B010BD6846CB
:104220009DED040B00F0ACF810F0030004BF9DED11
:10423000021B9DED000B0CD001280ED09DED021B42
:104240009DED000B022810D0012000F0C9FA06B045
:1042500010BD00F01DFA06B010BD9DED021B9DEDD6
:10426000000B012000F0BCFA01E000F011FA06B0EA
:10427000B1EE400B10BD0000000000000000000087
:10428000FB21E93F0000F07F10B52DED028BB0EE71
:10429000408A18EE100A33F009FA0446400010F183
:1042A000020F11D118EE100A33F052FA00EE904AC4
:1042B00000EE100AF8EEE00AB4EE600AF1EE10FA31
:1042C0001CBF0120FCF7C9FC2046BDEC028B10BDD1
:1042D00010B529499FED261B2DED020B84B00598E2
:1042E00020F000408842DCBF00209DED040B2EDD55
:1042F0002249884209D1049840B94FF00100FCF7E7
:10430000ACFC00F0C1FA06B010BD05DB9DED040B5E
:1043100030EE000B06B010BD68469DED040B00F0BA
:104320002FF810F003000DD0012814D09DED021BD2
:104330009DED000B022816D000F0AAF906B0B1EEF0
:10434000400B10BD9DED021B9DED000B012000F008
:1043500047FA06B010BD9DED021B9DED000B00F06D
:1043600097F906B010BD012000F03AFAE6E7000028
:104370000000000000000000FB21E93F0000F07F8A
:104380002DE9F14F04462DED020B2DED048B94B079
:104390009FED9D0B80ED020B199E9D4826F0004578
:1043A00085420ADC9DED180B002084ED000B14B053
:1043B000BDEC048B03B0BDE8F08F96489FED969B53
:1043C0009FED978BA84225DD97489FED991B9FEDA8
:1043D0009A2B9DED180B002E0DDD30EE490B85421A
:1043E00012BF30EE480B30EE410B30EE420B84ED45
:1043F000000B0120DBE730EE090B854212BF30EEE7
:10440000080B30EE010B30EE020B84ED000B4FF089
:10441000FF30CCE78A48A84253DB9DED180B51ECE6
:10442000100B0EF0D5F841EC100BB0EE401B9FEDD9
:10443000862B9FED870B290DDFF81CC201EE020BC6
:104440000120FDEEC00B10EE903A00EE903AB8EE6F
:10445000E02BB0EE410B02EE490B22EE081BFC44B0
:10446000032830EE411B84ED001B1DD011EE902A75
:1044700000EB4015113DC2F30A528A1A954213DA35
:104480000CEB0012B0EE403B92ED000B401C20EE16
:10449000021B33EE410B33EE403B33EE411B92EDFA
:1044A000023B12EE031BDBE7002EA8BF1846BFF647
:1044B0007EAF94ED000B5842B1EE400B84ED000B43
:1044C00075E7C6F3130040F4801EC6F30A50A0F24D
:1044D000F530471100F01F05C5F12000DDF860B090
:1044E000139000200890099005200DF1080C5B49FD
:1044F000002D07EB0002794408BF51F8221009D0C3
:1045000051F8223001EB8201AB404A68139922FA3C
:1045100001F11943A1FB0E26A1FB0B131A449A4289
:1045200034BF0123002303EB06080CEB8003D3E91F
:1045300001A60E448E4234BF0121002192448A44D8
:1045400011B1924502D903E0924501D2012100E068
:104550000021C3E901A641444CF82010011EA0F13E
:104560000100C4DC04989DED050A00F10050810FA4
:1045700004989FED3B4B800001EE100ADDED060A2A
:104580009DED072AB8EEC13BB8EE401BB8EE600BBC
:10459000B8EE422B002021EE041B9FED334B20EEA2
:1045A000040B9FED334B22EE042B30EE024B34EE26
:1045B000014B34EE034B8DED004B00909DED004B15
:1045C000199834EE433B10F0004F33EE411B31EEAF
:1045D000400B32EE401B9DED000B9FED272B20EE94
:1045E000020B9FED272B01EE020B9DED001B9FEDB3
:1045F000262B01EE020B1CBF4942B1EE400B84EDAD
:10460000000B0846D3E60000000000000000000098
:10461000FB21E93F7CD9024000004054FB21F93FD7
:104620003163621A61B4D03DFB21F93F0000000004
:104630000000601A61B4D03D7370032E8A19A33B49
:10464000FB2139410000000083C8C96D305FE43FA1
:10465000000000000000E03FF61805008E1805007D
:10466000000000000000103E000000000000103CB0
:10467000000000000000103A3326A611460B113C42
:10468000182D4454FB21F93D00000054FB21F93D55
:1046900010B52DED040B2DED068B82B0B0EE41ABC5
:1046A00009989FED299B20F00044B4F1795F0FDA5F
:1046B0009DED080BBDEEC00B10EE100A002801BFE7
:1046C000B0EE490B02B0BDEC068B04B008BF10BDC4
:1046D0009DED080B1E48062120EE008BB0EE480B26
:1046E000784400F045F820EE080B9DED081B1C48AF
:1046F000844228EE000B01EE4A0B9FED171B28EEBB
:10470000011BBCBF31EE400B39EE400B16DB1548E8
:10471000A042BCBF9FED142B8DED002B06DBA4F552
:1047200000100190002000909DED002B31EE421B07
:1047300039EE422B31EE400B32EE400B02B0BDECB5
:10474000068B04B010BD0000000000000000F03F28
:104750004416050000000000000000000000E03FDB
:104760003333D33F0000E93F000000000000D23F98
:10477000491E00EBC102B0EE401B92ED000B31F080
:1047800006020DD0491E00EBC102B0EE403B92ED97
:10479000002B31F00602B0EE420B03EE010BF1D11B
:1047A000022914D004290AD0062918BF704790EDB9
:1047B0000A2B00EE012B90ED080B02EE010B90EDA1
:1047C000062B00EE012B90ED040B02EE010B90ED99
:1047D000022B00EE012B90ED000B02EE010B704757
:1047E00031B504462DED040B2DED068BB0EE419B4B
:1047F00007989DED060B20F00040B0F1795F0DDACF
:1048000051EC100BFFF7B4FC042808BF00F048F887
:104810009DED060BBDEC068B05B030BD20EE008B88
:104820001348052128EE00ABB0EE480B7844FFF7A3
:104830009FFF9FED111B8CB19FED112B29EE022BD9
:104840000AEE402B9DED060B18EE029B0AEE419BF3
:1048500030EE490BBDEC068B05B030BD08EE001BF9
:104860009DED060B0AEE010BBDEC068B05B030BDCD
:10487000F015050000000000495555555555C5BFB8
:10488000000000000000E03F9FED031B81EE010BE4
:104890007047000000000000000000000000000061
:1048A0009FED030B20EE000B70470000000000009E
:1048B000000000000000001070B50446002508E06C
:1048C0002168481C20600878303805EB850100EB32
:1048D00041052168087800F004F80028F0D1284646
:1048E00070BD0146302903DB392901DC0120704706
:1048F0000020FCE730380A2801D201207047002050
:104900007047000010B54021074801F0FEF8002272
:104910001E2106482AF070FB0549086002F01EFCC3
:1049200000200449087010BD5C9A0220297200081A
:104930008C0302208803022030B50346B1F9004001
:10494000B2F90050AC4202DDB1F9004001E0B2F929
:1049500000401C80B1F90240B2F90250AC4202DDC5
:10496000B1F9024001E0B2F902405C80B1F90440C3
:10497000B2F90450AC4202DAB1F9044001E0B2F9F4
:1049800004409C80B1F90640B2F90650AC4202DA0C
:10499000B1F9064001E0B2F90640DC800120B3F92C
:1049A0000040B3F90450AC4205DCB3F90240B3F95E
:1049B0000650AC4200DD002030BDF8B504460D467F
:1049C00016460027B4F90000B5F90010884212DB42
:1049D000B4F90200B5F9021088420CDBB4F9040006
:1049E000B5F90410884206DCB4F90600B5F90610E2
:1049F000884200DC01270FB90020F8BD0EB9012064
:104A0000FBE72088ADF800006088ADF80200324670
:104A10006946284600F0A7F808B90020EDE7A0880D
:104A2000ADF800006088ADF80200324669462846BD
:104A300000F099F808B90020DFE72088ADF8000001
:104A4000E088ADF8020032466946284600F08BF84F
:104A500008B90020D1E7A088ADF80000E088ADF8E3
:104A6000020032466946284600F07DF808B9002069
:104A7000C3E70120C1E70246B2F90000B1F90430F2
:104A8000984213DCB2F90400B1F9003098420DDB12
:104A9000B2F90200B1F90630984207DCB2F906001B
:104AA000B1F90230984201DB012070470020FCE799
:104AB000F8B504460D461646B4F90400B5F90010E1
:104AC000884211DBB4F90600B5F9021088420BDB0D
:104AD000B4F90000B5F90410884205DCB4F902000D
:104AE000B5F90610884201DD0120F8BD0EB900209D
:104AF000FBE72088ADF800006088ADF80200324680
:104B00006946284600F02FF808B10020EDE7A0889C
:104B1000ADF800006088ADF80200324669462846CC
:104B200000F021F808B10020DFE72088ADF8000090
:104B3000E088ADF8020032466946284600F013F8D6
:104B400008B10020D1E7A088ADF80000E088ADF8FA
:104B5000020032466946284600F005F808B10020F8
:104B6000C3E70120C1E72DE9FC5F05460E46144668
:104B70004FF0000AB6F90000B5F90010884213DBC7
:104B8000B6F90000B5F9041088420DDCB6F9020050
:104B9000B5F90210884207DBB6F90200B5F9061034
:104BA000884201DC4FF0010ABAF1000F02D1002067
:104BB000BDE8FC9F002C01DC0120F9E7284616F037
:104BC0009DF8834600EBDB704710284616F015F879
:104BD000834600EBDB704FEA6008474501DA384650
:104BE00000E0404681464C4500DD4C462888ADF843
:104BF00000002888204400B2ADF804006888ADF8B1
:104C000002006888204400B2ADF806000022314658
:104C10006846FFF7A8FF80B1BDF80400204400B249
:104C2000ADF80400BDF80600204400B2ADF806005F
:104C30003146684626F0A2FBBAE7E888001B00B2BE
:104C4000ADF80200E888ADF806000022314668465B
:104C5000FFF789FF80B1BDF80400204400B2ADF831
:104C60000400BDF80200001B00B2ADF8020031469E
:104C7000684626F083FB9BE7A888001B00B2ADF8CE
:104C80000000A888ADF80400002231466846FFF70E
:104C90006AFF80B1BDF80000001B00B2ADF8000053
:104CA000BDF80200001B00B2ADF8020031466846B4
:104CB00026F064FB7CE76888ADF802006888204431
:104CC00000B2ADF80600002231466846FFF74BFF00
:104CD00080B1BDF80000001B00B2ADF80000BDF8C7
:104CE0000600204400B2ADF806003146684626F0C2
:104CF00045FB5DE701205BE710B5B1F90030B2F983
:104D00000040A34202DAB1F9003001E0B2F900300C
:104D10000380B1F90230B2F90240A34202DAB1F9DC
:104D2000023001E0B2F902304380B1F90430B2F947
:104D30000440A34202DDB1F9043001E0B2F90430CD
:104D40008380B1F90630B2F90640A34202DDB1F921
:104D5000063001E0B2F90630C38010BD2DE9FF41F5
:104D600004462AF0D1F805460020039034B14749A3
:104D7000E068086020462AF057FA03E018F050FE79
:104D80004249086041490968086926F055FA3F48D8
:104D90000068406920B13D490968486926F04CFA2D
:104DA0003A490968C86926F047FA38490968086A23
:104DB00026F042FA35480068006940B900203349BE
:104DC0000968A1F8500100BF00BFBDE8FF8126F0CF
:104DD000BDFD26F003FD2D480068B0F85001002805
:104DE0004BD02A4800680068007CC0F34000E8B15E
:104DF0002648006818F092FE401E06B2234800685C
:104E000018F026FE401E07B23B460022114601A8BC
:104E1000009615F0B8FF01A81C4909680968896B5C
:104E200048601A48006806F0DBFA00BF4FF4807152
:104E300016480068303020F00AFC20211348006832
:104E400000F5987020F003FC002010490968A1F8D3
:104E5000500128462AF04AF803900C480068006880
:104E6000406A50B109490968086808490968096831
:104E70004B6A07490A680399984720F01FF900F028
:104E80003FF800F007F800BF9FE700002C02022067
:104E90002802022010B5002416E0C4EBC4000C491F
:104EA00051F8200030B1C4EBC401094A52F8210086
:104EB00020F0B6F9C4EBC401054A02EB81001C21C5
:104EC00020F0C5FB601CC4B2042CE6DB10BD000062
:104ED000389B02200146094A10680BE042688A426A
:104EE00002D002688A4204D1027E22F00102521CE2
:104EF000027640690028F1D17047000000020220CC
:104F00007047000010B50421014800F0FEFD10BDFF
:104F1000509A022010B51C21014800F0F6FD10BD8A
:104F2000689A02202DE9FF4F8BB004469A46199DDE
:104F3000BAF1000F11D11898B0F5807F0DD1002083
:104F4000208060800C98401E00B2A0800D98401E0A
:104F500000B2E0800FB0BDE8F08FB5F9000040422C
:104F6000189948430121C1EB202000B22080B5F9F7
:104F700002004042189948430121C1EB202000B2B1
:104F80006080B5F900100C98401A18994843022126
:104F900001EB202000B2A080B5F902100D98401A54
:104FA00018994843022101EB202000B2E080BAF1B9
:104FB000000F14D120882988084400B2208060881E
:104FC0006988084400B26080A0882988084400B23B
:104FD000A080E0886988084400B2E080BAE70A202F
:104FE0009AFBF0F00A900A98401C09900A9800EB8E
:104FF0008000AAEB400B0A9800B22AF09BFA0890B6
:10500000099800B22AF096FA07900A985A3000B22E
:105010002AF090FA069009985A3000B22AF08AFADB
:105020000590CBF10A0108984143079800FB0B104B
:105030000A2190FBF1F6CBF10A010698414305984D
:1050400000FB0B100A2190FBF1F776117F11B4F9E8
:105050000080B4F9029007FB08F006FB19002988CC
:1050600001EBA02000B2ADF8100006FB08F007FB32
:105070000900698801EBA02000B2ADF81200B4F974
:105080000480B4F9029007FB08F006FB1900298898
:1050900001EBA02000B2ADF80C0006FB08F007FB06
:1050A0000900698801EBA02000B2ADF80E00B4F948
:1050B0000080B4F9069007FB08F006FB1900298868
:1050C00001EBA02000B2ADF8080006FB08F007FBDA
:1050D0000900698801EBA02000B2ADF80A00B4F91C
:1050E0000480B4F9069007FB08F006FB1900298834
:1050F00001EBA02000B2ADF8040006FB08F007FBAE
:105100000900698801EBA02000B2ADF80600BDF9E6
:105110000800BDF91010884202DABDF9080001E06C
:10512000BDF91000BDF90410BDF90C20914202DA5E
:10513000BDF9041001E0BDF90C1088420BDABDF98D
:105140000800BDF91010884202DABDF908000DE030
:10515000BDF910000AE0BDF90400BDF90C10884249
:1051600002DABDF9040001E0BDF90C002080BDF9B0
:105170000800BDF91010884202DDBDF9080001E009
:10518000BDF91000BDF90410BDF90C20914202DDFB
:10519000BDF9041001E0BDF90C1088420BDDBDF92A
:1051A0000800BDF91010884202DDBDF908000DE0CD
:1051B000BDF910000AE0BDF90400BDF90C108842E9
:1051C00002DDBDF9040001E0BDF90C00A080BDF9CD
:1051D0000A00BDF91210884202DABDF90A0001E0A6
:1051E000BDF91200BDF90610BDF90E20914202DA98
:1051F000BDF9061001E0BDF90E1088420BDABDF9C9
:105200000A00BDF91210884202DABDF90A000DE069
:10521000BDF912000AE0BDF90600BDF90E10884282
:1052200002DABDF9060001E0BDF90E006080BDF9AB
:105230000A00BDF91210884202DDBDF90A0001E042
:10524000BDF91200BDF90610BDF90E20914202DD34
:10525000BDF9061001E0BDF90E1088420BDDBDF965
:105260000A00BDF91210884202DDBDF90A000DE006
:10527000BDF912000AE0BDF90600BDF90E10884222
:1052800002DDBDF9060001E0BDF90E00E08000BFBF
:1052900060E62DE9F74F86B0044620680590B4F922
:1052A00008100798A0EB0108B4F90A100898A0EBC1
:1052B0000109E089B0F5807F13D1206B00FB08F075
:1052C000E16A01FB1901606A00EBA10BE06A00FBD7
:1052D00008F0216B01FB0901A06A00EBA10004901A
:1052E0002FE0A08980B9A06B00FB08F04FEA60189E
:1052F000A06B00FB09F04FEA6019606A00EB080B35
:10530000A06A484404901CE0A06B00FB08F04FEA40
:105310006018A06B00FB09F04FEA6019206B00FBDE
:1053200008F0E16A01FB1901606A00EBA12BE06A59
:1053300000FB08F0216B01FB0901A06A00EBA12032
:1053400004904FEA2B2604980712B4F90400B042E7
:1053500003DC002009B0BDE8F08F002E01DA002048
:10536000F8E7B4F90600B84201DC0020F2E7002FAC
:1053700001DA0020EEE73420005DC0F3800050B376
:105380003420005DC0F3400078B90225B4F9040070
:105390007843684306FB050A059800EB0A012A4694
:1053A00004F1140020F001F92CE00325B4F9040005
:1053B0007843684306FB050A6A1E059800EB0A015C
:1053C00004F1140020F0F1F80AEB0500401E0599E5
:1053D000095CA17516E04FF0000A0025208A0346FB
:1053E0003AB231B2019004F118001CF0CFFE0290E5
:1053F000BDF80800A0823AB231B204F118001CF0E6
:1054000025FEA0753420005D00F00100B0B14FF41E
:105410007F40002100F47C4241EA5211C0F3C402F3
:1054200011430191BDF8042011460291A08ABDF8F4
:105430000810884201D100208CE700BFE07C08B949
:10544000012087E70FFA8BF1A187049801B2E18769
:1054500031B24020015339B242200153C4F844A074
:1054600084F84850204600F003F80390039871E751
:105470002DE9F04F8DB00446D4F8009094F83C002C
:105480000C9094F83E000B900C9870280BDA4FF0BB
:10549000FF35B4F940002844002800DA00250C98B4
:1054A0008030C7B213E00C9890280EDD0125B4F9C6
:1054B00040002844B4F90410884200DB00250C9811
:1054C000C0F1FF008030C7B201E00025FF270B9834
:1054D00070280CDA4FF0FF36B4F94200304400284F
:1054E00000DA00260B98803000F0FF0815E00B98DA
:1054F00090280FDD0126B4F942003044B4F90610BB
:10550000884200DB00260B98C0F1FF00803000F0DD
:10551000FF0802E000264FF0FF08A08A0A90A07D55
:10552000069000200590049003903420005DC0F3A5
:10553000800000285BD094F84800626C00FB0520D6
:1055400000EB0901022209A820F02FF8A28894F8A4
:10555000480012FB00F2606C02FB060000EB090140
:10556000022208A820F021F8A28894F8480012FB33
:1055700000F2606C02FB060294F8480000FB052074
:1055800000EB0901022207A820F00FF83420005D8B
:10559000C0F3400000287ED094F84800616C00FB06
:1055A00005110844401E19F800000590A18894F8E0
:1055B000480011FB00F1606C01FB060194F8480003
:1055C0000844401E19F800000490A18894F848008F
:1055D00011FB00F1606C01FB060194F8480000FB30
:1055E00005110844401E19F80000039053E0208A7A
:1055F0000090B4F942204020005B284401B204F13D
:105600001800009B1CF0C2FD0990208A00904220E7
:10561000005B304402B2B4F9401004F11800009B62
:105620001CF0B4FD0890208A00904220005B3044BA
:1056300002B24020005B284401B204F11800009B34
:105640001CF0A4FD07903420005DC0F3400010B3AF
:10565000B4F942204020005B284401B204F1180054
:105660001CF0F4FC05904220005B304402B2B4F917
:10567000401004F118001CF0E9FC04904220005B8B
:10568000304402B24020005B284401B204F118000B
:105690001CF0DCFC0390BA46BB463420005DC0F32E
:1056A0004000E0B306987843C7F1FF0C059B03FB6D
:1056B0000C00C0F3072104987843C7F1FF0C039B4B
:1056C00003FB0C00C0F3072201FB08F0C8F1FF0345
:1056D00002FB0300030AA375022905DC022A03DC8E
:1056E00000200DB0BDE8F08F022901DC4FF000086A
:1056F000022A01DC4FF0FF080698022801DC4FF077
:10570000000A0598022801DC4FF0FF0A04980228DD
:1057100001DC4FF0000B0398022803DC00E002E0FC
:105720004FF0FF0B03E0BA46BB46FF21A175BAF16B
:10573000000F02D1099802900BE0BAF1FF0F02D1DD
:105740000A98029005E05246DDE9091017F0D4FBF3
:105750000290BBF1000F02D1079801900BE0BBF162
:10576000FF0F02D10898019005E05A46DDE90710C5
:1057700017F0C2FB0190B8F1000F03D1BDF804008F
:10578000A0820FE0B8F1FF0F03D1BDF80800A0829E
:1057900008E04246DDE9011017F0AEFB0090BDF8CD
:1057A0000000A08201209CE72DE9F05F0446B4F9D7
:1057B000080001026162B4F90A000102A162B4F9B1
:1057C0000C000A2190FBF1F56F1CB4F90C0005EBFD
:1057D0008501A0EB4106684200B229F0ABFE80468D
:1057E000784200B229F0A6FE8146C5F15A0000B207
:1057F00029F0A0FE8246C7F15A0000B229F09AFEB5
:105800008346C6F10A0000FB08F009FB06000A21E6
:1058100090FBF1F1E162C6F10A0000FB0AF00BFB1C
:1058200006000A2190FBF1F12163E06A4111E16277
:10583000206B41112163A07C1CF0B7FD3421095D70
:1058400060F3000134200155A07C1CF091FD34214F
:10585000095D60F3410134200155A07C042805D086
:10586000A07C052802D0A07C062807D13420005D4A
:1058700020F00400001D3421085505E03420005DAF
:1058800020F004013420015521682162A06920F034
:10589000E000A061A17CA06961F30400A061A1887F
:1058A000A06961F39420A061E188A06961F35F5071
:1058B000A061E08900EBD071491001F5001191FB66
:1058C000F0F2A263FF21A175208AA082BDE8F09FBB
:1058D0002DE9F743054616460024134C29F014FB26
:1058E0008046334629462046019A1DF00DFA0746A8
:1058F0005FB900BF00BF2C2120461FF0A8FE4FF06B
:105900000040A0620020BDE8FE830020A062E069A4
:1059100018B9404629F0EAFAE061E06908B90120C7
:10592000E0612046EFE700008C9A022010B51421B8
:10593000114800F0EAF81DF099F9044600BF1CB9BF
:1059400000BF00BF00BFFEE700BF14B900BF00BF2B
:1059500010BD0A4920461DF071FA094920461DF084
:105960006FFA084920461DF06DFA074920461DF0E0
:1059700063FA00BFECE70000749A02208924020851
:105980005D290208792B0208512402082DE9FF4104
:1059900004460F4614B918F043F804460CB9BDE8A4
:1059A000FF811FB90020A4F85001F8E70020ADF8EE
:1059B0000800ADF80A00204618F04AF8401E00B270
:1059C000ADF80C00204618F0A9F8401E00B2ADF862
:1059D0000E0002AA39466846FEF7AEFF064606B933
:1059E000DDE72068007CC0F3400060B102982063CE
:1059F000039860630120A4F85001606810B16068EA
:105A000029F01EFCCBE72068806918B12068694640
:105A10008269904700250BE004F1300000EBC501DE
:105A200000226846FEF7C9FF00B1B8E7681C85B2DE
:105A3000B4F85001A842EFDCB4F85001202809DA8C
:105A4000B4F8502104F1300101EBC200694615F0B1
:105A50004BF80BE00020A4F85001B4F8502104F1F9
:105A6000300101EBC20002A915F03EF8B4F8500174
:105A7000401CA4F85001606810B1606829F0E0FB98
:105A800000BF8CE770B50546284600F013F80446C1
:105A900000260CE02146284600F024F80646214660
:105AA000284600F086F820461FF0BAFB3446002C4A
:105AB000F0D170BD014609B9002070474868FCE785
:105AC00070B5064600243046FFF7F4FF054605E0B2
:105AD000641C2946304600F005F80546002DF7D134
