:020000040800F2
:10000000D0E105204D0300084161000839030008D4
:1000100071530008351E0008496B000800000000FD
:10002000000000000000000000000000D96200088D
:10003000391E00080000000043610008DB62000870
:1000400073030008730300087303000873030008B8
:1000500073030008730300087303000873030008A8
:100060007303000873030008730300087303000898
:100070007303000873030008730300087303000888
:100080007303000873030008730300087303000878
:100090007303000873030008730300087303000868
:1000A0007303000873030008730300087303000858
:1000B000730300087303000801630008730300085A
:1000C0007303000873030008730300087303000838
:1000D00073030008730300081D6B0008396B0008E8
:1000E0007303000873030008730300087303000818
:1000F0007303000873030008730300087303000808
:1001000073030008730300087303000873030008F7
:1001100073030008730300084563000873030008B5
:1001200073030008730300087303000873030008D7
:1001300073030008730300087303000873030008C7
:1001400073030008730300087303000873030008B7
:1001500073030008730300087303000873030008A7
:100160007303000873030008730300087303000897
:100170007303000873030008730300080000000005
:100180007303000873030008730300087303000877
:100190007303000873030008730300087303000867
:1001A0007303000873030008730300087303000857
:1001B0007303000873030008730300087303000847
:1001C00073030008730300080000000073030008B5
:1001D0007303000873030008730300087303000827
:1001E0007303000873030008730300087303000817
:1001F000730300087303000800F002F800F08CF8A5
:100200000AA090E8000C82448344AAF10107DA4571
:1002100001D100F081F8AFF2090EBAE80F0013F037
:10022000010F18BFFB1A43F001031847041507001C
:10023000241507000A444FF0000C10F8013B13F09E
:10024000070408BF10F8014B1D1108BF10F8015B2F
:10025000641E05D010F8016B641E01F8016BF9D122
:1002600013F0080F1EBF10F8014BAD1C0C1B09D179
:100270006D1E58BF01F801CBFAD505E014F8016BEB
:1002800001F8016B6D1EF9D59142D6D3704700007D
:100290000023002400250026103A28BF78C1FBD88F
:1002A000520728BF30C148BF0B607047662933F042
:1002B0005581692900F08881642900F085817529BC
:1002C00000F082816F2900F01982782900F03E82C7
:1002D0000368DB0928BF41F08001632900F0FD8736
:1002E000732901F00280E32901F02080002070478B
:1002F0001FB533F0FEF801F099F80400002000214A
:1003000033F07EF8401C60600020002133F08EF84E
:10031000E0601FBD10B510BD01F096F91146FFF762
:10032000E7FF2CF0F1F801F0B4F903B4FFF7F2FFA6
:1003300003BC08F0A1FE00001EF0040F0CBFEFF399
:100340000880EFF3098016F0B5BC0000DFF830003C
:10035000016841F4700101600A4880470A4800477B
:10036000FEE7FEE7FEE7FEE7FEE7FEE7FEE7FEE765
:10037000FEE7FEE705480649044A064B70470000C1
:1003800088ED00E0E5620008F9010008D061052071
:10039000D0E10520D0610520704753EA020C00F03F
:1003A00069802DE9F04B4FF00006002B1FBFB3FA18
:1003B00083F503FA05F424FA05F65E4012BF1643EE
:1003C000B2FA82F502FA05F4C5F120051EBF22FA41
:1003D00005FC44EA0C04203556EA044C4FEA144468
:1003E00018BF641C4FF000084FF00009904271EBF9
:1003F000030C39D3002919BFB1FA81F701FA07F6C6
:10040000B0FA80F700FA07F6C7F120071EBF20FAFE
:1004100007FC46EA0C062037B6FBF4FCA7EB050701
:10042000103F07F01F0BCBF120060CFA0BFB2CFA48
:1004300006F644BFB3460026202FA4BF5E464FF009
:10044000000B5BEA060C08BF4FF0010B19EB0B0920
:10045000ABFB027C48EB0608C01B06FB02CC0BFB87
:1004600003CC71EB0C01C1E70B46024641464846FE
:10047000BDE8F08B13B54FF000004FF00001AFF373
:100480000080BDE81C4070470FB4044910B503AAB2
:10049000029800F02FFF10BC5DF814FB78000220DA
:1004A0000FB41CB5084B06AA7B446946009005981A
:1004B00000F0E9FE04460020694600F0F7FE204601
:1004C0001CBC5DF814FB0000010E00000FB47CB5ED
:1004D0000C0009AA009001D02044401E084B7B4428
:1004E00069460190089800F0CEFE05461CB1002038
:1004F000694600F0DBFE28467CBC5DF814FB00007A
:10050000D50D000070B5044685690068C10601D5A7
:10051000302600E02026C00707D070BDD4E90121B5
:1005200030469047206A401C20626D1EF6D570BD93
:1005300070B5044685690078C00707D170BDD4E95D
:10054000012120209047206A401C20626D1EF6D5B4
:1005500070BD09684A0501D540B27047C905FCD590
:1005600000B2704709684A0501D5C0B27047C90595
:10057000FCD580B2704770B50C460546012A05D0FF
:100580002878800600D5EA69002302E0012305E00F
:100590005B1C934202D2E05C0028F9D1A869E618FE
:1005A000C01AA861286A184428622846FFF7AAFFE3
:1005B00004E0D5E9012114F8010B9047B442F8D3C7
:1005C0002846FFF7B5FF70BD2DE9F041064600242F
:1005D00010687529314616A510D0FFF7BAFF00281C
:1005E00002DA404213A507E031688A0701D512A557
:1005F00002E0490704D511A5012401E0FFF7B2FF8D
:1006000000210A2206F1240709E0B0FBF2FCB0FB4E
:10061000F2F302FB1C00303078541846491C0028C5
:10062000F3D123462A463046BDE8F04100F0BDBB79
:10063000000000002D0000002B0000002000000042
:100640002DE9FF5F15468A460446DFF8AC80F84482
:100650000027D8E900103E46CDE9001010E03AF836
:1006600016106A4602A800F0BCFE411C07D0217893
:10067000890603D5E269391891420DD80744761CE2
:100680002078800602D5E069B84205DDAE42E6DB9F
:100690003AF816000028E2D1A069C01BA0612046EC
:1006A000FFF730FFD8E90010CDE90010002017E077
:1006B0003AF818106A4602A800F093FEB0F1FF3F26
:1006C00081460BD000250DF1080B05E0D4E901218E
:1006D0001BF8050090476D1C4D45F7D308F101004C
:1006E000B0428046E4DB206A384420622046FFF7AF
:1006F0001FFFBDE8FF9F0000CE0B070070B504464A
:1007000021461068FFF72EFF002104F1240505E0C3
:1007100000F007023032C0086A54491C0028F7D1A3
:100720002068002307A2050707D5800600D421B161
:10073000E069012304A2401EE0612046BDE870404C
:1007400000F033BB000000003000000070B504462C
:100750000D4621461068FFF705FF2188090502D5DF
:100760000F4A7A4402E00E4A7A440E32002104F124
:10077000240305E000F00F060009965D5E54491C55
:100780000028F7D120780023000704D5702D02D06F
:1007900009B1022311322046BDE8704000F005BBCC
:1007A000C20A07002DE9F05F894604464FF0000AAF
:1007B000DFF874B1FB44C0F820A02046E168884708
:1007C000002874D0252806D0D4E901219047206A5A
:1007D000401C2062F1E700265F462046E16888471A
:1007E0002028054607DB312D05D2781910F8200C9A
:1007F00008B10643F1E7B00701D526F00406C4F8B6
:100800001CA00027C4F818A02A2D09D0284606F0FD
:1008100043FD38B304EB8708303DC8F8185019E0A1
:1008200059F8041B204604EB87029161E168884770
:10083000012F054618D1E069002820DA26F02006AD
:100840001DE0D8F8180000EB800005EB40003038C0
:10085000C8F818002046E1688847054606F01CFDE8
:100860000028EED1012F0AD02E2D08D12046E168B4
:1008700088477F1C0546022F46F02006C4DBA0698E
:10088000002803DA404246F00106A061F00701D0DB
:1008900026F010066C2D0BD0682D09D04C2D39D0C8
:1008A0006A2D35D0742D35D07A2D33D016E038E04E
:1008B000E1682F4620468847B842054609D16C2F8B
:1008C00026D04FF48060E1680643204688470546FD
:1008D00004E06C2F1AD04FF4807006430DB3A5F1DD
:1008E0004100192802D8203546F400664A462946B8
:1008F000204626604E46FFF7D9FC80B101280BD078
:10090000F61D26F0070000F1080956E74020E4E74D
:100910008020D8E70020D6E706F104094DE72846F5
:1009200052E7206ABDE8F09F980A07002DE9F05FC2
:1009300093460F4680460446002600F027FAD0F87A
:100940000090824614F8015B2DB100F017FA0068A0
:10095000405DC007F6D12B2D02D02D2D1AD0641E7C
:100960000021CAF800105A463946204600F0EAFC39
:10097000014627B13868A04201D1C7F80080DAF8F3
:100980000000022809D0CAF80090700505D5484239
:10099000BDE8F09F46F48066E2E70846F8E730B528
:1009A00005460B462A4613F8014B12F8010B08B115
:1009B000A042F8D01CB1002802D06D1CF1E72846F7
:1009C00030BD40EA010310B59B070FD1042A0DD3B7
:1009D00010C808C9121F9C42F8D020BA19BA884220
:1009E00001D9012010BD4FF0FF3010BD1AB1D3075F
:1009F00003D0521C07E0002010BD10F8013B11F895
:100A0000014B1B1B07D110F8013B11F8014B1B1BBD
:100A100001D1921EF1D1184610BD40EA01030246F1
:100A200030B59B0710D14FF0013400E008C208C96F
:100A30001D1B9D4315EAC41FF8D013F0FF0102F8F7
:100A4000011B0DD01B0AF8E711F8013B002B02F83F
:100A5000013B05D011F8013B002B02F8013BF3D11B
:100A600030BD10B5431C02E010F8011B71B18107C5
:100A7000FAD14FF0013202C88C1A8C4314EAC21129
:100A8000F9D0C01A0A0603D0C01E10BDC01A10BD8E
:100A90000A0401D0801E10BD0902FCD0401E10BD0A
:100AA00040EA010370B59B072ED14FF00136042AAE
:100AB0002AD308C810C99D1B9D43121F15EAC615ED
:100AC00017D0D8B2E1B2401A50EA056110D198B2FD
:100AD000A1B2401A50EA05410AD123F07F4024F028
:100AE0007F41401A50EA052102D1180EA0EB146094
:100AF00070BDA342DBD018BA21BA884201D90120C7
:100B000070BD4FF0FF3070BD0AB9002070BD10F805
:100B1000013B11F8014B63B1A3420AD1521E08D028
:100B200010F8013B11F8014B1BB1A34201D1521E39
:100B3000EDD1181B70BD032A40F2308010F0030C79
:100B400000F0158011F8013BBCF1020F624498BF20
:100B500011F801CB00F8013B38BF11F8013BA2F1BD
:100B6000040298BF00F801CB38BF00F8013B11F038
:100B7000030300F02580083AC0F0088051F8043BD8
:100B8000083A51F804CBA0E80810F5E7121D5CBF45
:100B900051F8043B40F8043BAFF30080D20724BF78
:100BA00011F8013B11F801CB48BF11F8012B24BF0C
:100BB00000F8013B00F801CB48BF00F8012B70475B
:100BC00010B5203AC0F00B80B1E81850203AA0E8E8
:100BD0001850B1E81850A0E81850BFF4F5AF5FEA1C
:100BE000027C24BFB1E81850A0E8185044BF18C9CF
:100BF00018C0BDE810405FEA827C24BF51F8043B76
:100C000040F8043B08BF7047D20728BF31F8023BC9
:100C100048BF11F8012B28BF20F8023B48BF00F85D
:100C2000012B70474FF000020429C0F0128010F031
:100C3000030C00F01B80CCF1040CBCF1020F18BFB8
:100C400000F8012BA8BF20F8022BA1EB0C0100F04B
:100C50000DB85FEAC17C24BF00F8012B00F8012B1E
:100C600048BF00F8012B70474FF0000200B5134653
:100C700094469646203922BFA0E80C50A0E80C50BC
:100C8000B1F12001BFF4F7AF090728BFA0E80C506D
:100C900048BF0CC05DF804EB890028BF40F8042B66
:100CA00008BF704748BF20F8022B11F0804F18BFD3
:100CB00000F8012B704710B5044610F0030F08BF71
:100CC00011F0030F40F015804FF0013E121FC0F2EB
:100CD0000E8051F8043BA3EB0E0C2CEA030C1CEA2B
:100CE000CE1C08BF40F8043BF0D0A1F1040102F192
:100CF0000402521E08DB11F8013B002B00F8013BF7
:100D0000F7D11146FFF78EFF204610BD4FF0013C92
:100D100050F8042B51F8043B9A4215D1A2EB0C0376
:100D2000934313EACC130BD150F8042B51F8043B36
:100D30009A4209D1A2EB0C03934313EACC13E7D0F8
:100D40004FF00000704700BFD01A01BAB1FA81F12C
:100D500001F0180122FA01F0CB40C1F12001DBB211
:100D6000C0B2C01A2CFA01F3D11A914311EAC3118F
:100D7000E6D17047704770477047704710B500F074
:100D800055FB001D10BD00BF7926030000487047C9
:100D90006C61052010B5FFF7F9FF006810BD10B5B4
:100DA0000446FFF7F3FF046010BD2DE9F0470D4640
:100DB00099469246044600F124080168880604D545
:100DC000E06921F01001216000E00120A84201DD6E
:100DD000471B00E00027A1697A1902EB0900081AF5
:100DE000A0612078C00602D42046FFF78BFB0026C6
:100DF00008E0D4E901211AF806009047206A401C57
:100E0000761C20624E45F4DB2078C0060AD52046C9
:100E1000FFF778FB06E0D4E9012130209047206AF3
:100E2000401C2062381EA7F10107F4DC07E0D4E97A
:100E3000012118F805009047206A401C2062281EF6
:100E4000A5F10105F3DC2046FFF772FB20780006D0
:100E500002D50220BDE8F0870120FBE770472DE9AD
:100E6000FF4F0C461E464FF0FF378BB0D2E9000112
:100E7000DDF860800A908A46C1F30A5505B93D46FF
:100E8000002108464FF00000BAF1000F00F44000C6
:100E900005DA00EB80004FF4400101EA50004FEA10
:100EA0009059B9F1010F00DDB9460A9850EA4A009D
:100EB0000ED044F61050A5F2FF3545432F14B8F17B
:100EC000000F1ED07542291E1EDDC9F100021CE074
:100ED000B8F1010F4FF0000001D0302103E0F243E0
:100EE00005E02154401CB042FBDB304600220021CB
:100EF00021540B99C1F80880C1E900200FB0BDE86A
:100F0000F08FBD1B6D1CDEE74A4600DA694206A879
:100F100000F024FB06AB93E8070003AB83E807006F
:100F200050460A9900F0BEFB8DE80700A0F500507E
:100F30001F3800900398002D0ADD42F21F014A4637
:100F40000844002303A90390684600F027FE09E047
:100F5000A0F500504A461F38002303A903906846B5
:100F600000F031FE8DE807000004000C03D04FF0C4
:100F7000FF30410800E01046B8F1000F03D0002216
:100F8000009215461EE0751E05D400F053FA30326B
:100F900062556D1EF9D5B3460122084302D00022E6
:100FA0007F1C04E02078302801D100227F1E002A17
:100FB000099784D01DE0112D07DA00F03BFA30329A
:100FC00062556D1C50EA0102F5D1084302D0009829
:100FD000C8B10EE00021681E05E0235C625C63542A
:100FE0002254401E491C8142F7DBAB46A81B401E21
:100FF0000990002004F80B000B98099AC0F80880AB
:10100000C0E9002B7AE711264FF0000857E72DE9D9
:10101000F04F88460446D21D22F0070191B0D1E975
:101020000001CDE90A0105F091FD02460B98C00FC1
:1010300001D02D2007E02068810701D52B2002E098
:10104000202101EAC000032A099001D0072A05DB0C
:1010500003464146204600F033FA0BE12078800633
:1010600001D5E06900E00620B8F1650F814606D0A1
:10107000B8F1660F18D0B8F1670F70D131E00020D9
:10108000B9F1110F009001DB112301E009F1010317
:101090000AAA01A90CA8FFF7E2FEDDE90C70002600
:1010A00009F10105834647E001204B4600904FF0CF
:1010B00000470AAA01A90CA8FFF7D1FEDDE90DB08F
:1010C0000C995D46002610B909F101000D18B9EB25
:1010D000050003D4C0F1FF3609F10105A5EB0900B5
:1010E0002BE0B9F1010F01DA4FF001090020B9F14D
:1010F000110F0090484601DD112300E003460AAAC3
:1011000001A90CA8FFF7ABFEDDE90C704D460026E7
:101110008346207800070AD4AB4500DA5D4601A873
:10112000012D04DD411911F8011C302907D04F456C
:1011300002DA17F1040F04DA012082460FE06D1E77
:10114000EEE7002F02DCED1B3E4403E0781CA842D2
:1011500000DD7D1CB81B00F1010A4FF0004720782C
:10116000000703D4AA4501DB4FF0FF3A0021B7F195
:10117000004F0DF143088DF8431024D002202B239B
:10118000002F01DA7F422D230A21021EA0F1010067
:1011900000DC5FB197FBF1FC97FBF1F201FB1C7CDB
:1011A00017460CF1300C08F801CDEEE7A8F101006C
:1011B00003702188090501D5452100E06521A0F1D2
:1011C000010800F8011C09980FA9A1EB0807FF1DF1
:1011D00000B10120411901EBEA70A1693844081AF5
:1011E000401EA0612078C00602D42046FFF78AF98D
:1011F000099828B1D4E901219047206A401C206257
:101200002078C00622D52046FFF77CF91EE0002E8C
:1012100004DBB34502DD01A8805D00E03020D4E9A5
:1012200001219047206A401C2062761CAAF101002F
:101230005FEA000A0AD100F0F9F8C0680168405C72
:10124000D4E901219047206A401C2062281EA5F1A4
:101250000105DCDC07E0D4E9012118F8010B904717
:10126000206A401C2062381EA7F10107F3DC2046EB
:10127000FFF75EF9032011B041E6000001694A1C46
:1012800002610878704700B58FB0CDE901310021C7
:10129000059105497944CDE9031011466846FFF7E9
:1012A00081FA0FB000BD0000E5FFFFFF0A6802F8F9
:1012B000010B0A607047D1E900239A4202D2531C05
:1012C0000B601070704710B5436913B1AFF3008025
:1012D00001E0FFF750F9012010BD127800F1240160
:1012E0000A7000224A700122EDE711684FF0FF32C8
:1012F000E9E70000074B70B50D467B44FFF7C3FFDD
:101300000446284600F09CF910B14FF0FF3070BD44
:10131000204670BD3B3D010010B5436913B1AFF3EA
:10132000008001E0FFF78CF9012010BD128800F168
:10133000240182840022C2840122EDE711684FF06B
:10134000FF32E9E72DE9F05F824615468B4600271C
:101350000AF10104B9460078302801D09DB113E0AC
:1013600014F8010B0127782803D0582801D045B183
:101370000AE00DB1102D07D1002714F8010B10253C
:1013800002E0082500E00A250026B0460EE005FB35
:10139000080005FB06F101271FFA80F801EB104653
:1013A000B6F5803F00D3B94614F8010B294600F08A
:1013B000C7F80028EBDABBF1000F05D00FB1641EAF
:1013C00000E05446CBF80040B9F1000F06D0FFF71B
:1013D000DDFC02210160C81EBDE8F09F48EA06401E
:1013E000FAE770B516460C460546FFF7C7FC0368DA
:1013F00093F80101012806D0FF2C0FD8185D68B1C1
:1014000001202C7070BDD3F807013246214603F24B
:10141000071303442846BDE8704018474FF0FF30DB
:1014200070BD0000004870476C610520004870479F
:101430008C61052030B5B0F10A024FEA900E71F1CF
:1014400000034EEA817EB0EB0E0061EB91014FEAA2
:10145000101E4EEA017E10EB0E0041EB11114FEA17
:10146000102E4EEA016E10EB0E0041EB11214FEAF7
:10147000104E4EEA014E10EB0E0041EB11414018A8
:1014800041F100014FEAD00040EA41704FEAD1013A
:1014900010EB80054FEA810444EA907444EB0104A8
:1014A0006D1944EB0404521BA3414FF0000348BFE5
:1014B0000A3200D530BD401C41F1000130BD0000B2
:1014C0002DE9F0411F46044603260168072A01F46E
:1014D000006004DB08B116A505E016A503E008B11D
:1014E00015A500E015A521F010002060A069C01E20
:1014F000A0610FB1401EA0612046FFF703F84FB175
:10150000D4E9012138469047206A401C2062C01C63
:10151000206206E0206AFAE7D4E9012115F8010B00
:101520009047761EF8D22046FFF702F8BDE8F0811A
:101530004E414E006E616E00494E4600696E660077
:101540003A2800D2303820F02002412A01D3A2F1FB
:101550003700884201D34FF0FF3070472DE9F04744
:10156000814616468AB0354878440DC88DE80D008E
:1015700032487844801C03AC0DC884E80D0041F665
:101580009B300844372190FBF1F290FBF1F5A5F177
:10159000800501FB12041B3C02D56442012000E0DF
:1015A0000020DFF898A080460027FA44AAF1BE0A7E
:1015B0000EE0E0070AD03246684607EB47010123F8
:1015C0000AEB810100F0FFFA8DE8070064107F1C30
:1015D000002CEED1194F7F44AE3F19E0E80715D03B
:1015E00007EB04100DF1180A90E80E008AE80E00CF
:1015F000C068F04201D1981908903246012306A92B
:1016000003A800F0E0FA03AB83E807006D10641C48
:10161000002DE3D14FF0010332466946B8F1000FC7
:1016200003A802D000F0BAFA01E000F0CCFAC9E950
:101630000001C9F808200AB0BDE8F08798FE06004E
:10164000007B00F0800070477546FFF7EBFEAE466A
:1016500005006946534620F00700854618B020B5BE
:10166000FEF788FEBDE820404FF000064FF000076F
:101670004FF000084FF0000B21F00701AC46ACE83A
:10168000C009ACE8C009ACE8C009ACE8C0098D46A7
:10169000704710B50446AFF300802046BDE8104007
:1016A000FEF743BE5FEA400C08BF91F0000F4FEA1F
:1016B0008C234FEAC12243EA51514FEA1C5018BF14
:1016C00000F5F0404FEA300018BF41F000415FEAFA
:1016D0006C5C00F02980BCF1FF3F08BF40F0804007
:1016E0007047130C06BF12044FF0100C4FF0000CA3
:1016F000130E04BF12020CF1080C130F04BF1201E9
:101700000CF1040C930F04BF92000CF1020CD30FE8
:1017100004BF52000CF1010C11464FF00002A0F181
:101720001F00A0EB0C00704711F0004F08BF70477E
:1017300031F000413FF4D5AF0B0C06BF09044FF068
:10174000100C4FF0000C0B0E04BF09020CF1080C3A
:101750000B0F04BF09010CF1040C8B0F04BF8900AF
:101760000CF1020CCB0F04BF49000CF1010CCCF1C1
:101770002003A0EB0C0022FA03F302FA0CF241EA78
:10178000030100F10100704720F07F4C80EA030064
:1017900023F07F47ACEB070303F57C5300F00040D8
:1017A00003F1FF032DE980494FEA154B09B44FEAD5
:1017B000144325EA0B4E24EA03480FF2042606EBF5
:1017C000132749083E785FEA320203FB0667C7F534
:1017D000000707FB06F64FEA54374FEAD64606F1F4
:1017E000020607FB066CCCF1005C4FEA1C472CEAB2
:1017F000074C07FB06F40CFB06F504EB15464FEA15
:10180000961634BF00204FF000404FEAD13706FB58
:1018100007FC4FEA1C4C0CFB0BF7D21B03FB0CF72D
:1018200061EB07010CFB0EF7B0EB074072EB1742C0
:101830000CFB08F734BFA2EB0742B2EB074261EBA7
:1018400017414FEA0C444FEA910706FB07FC4FEAA9
:101850001C4C0CFB0BF7B0EBC74072EB573203FB91
:101860000CF734BFA2EBC742B2EBC74261EB573172
:101870000CFB0EF7B0EBC70072EB57720CFB08F7CE
:1018800034BFA2EBC702B2EBC70261EB5771039FF3
:101890004FEA816141EA921104EBCC044FEAD1375F
:1018A0004FEA826206FB07FC42EA90124FEA806030
:1018B0004FEA1C4C0CFB0BF7D21B03FB0CF761EB44
:1018C00007010CFB0EF7B0EB074072EB17420CFB65
:1018D00008F734BFA2EB0742B2EB074261EB1741B6
:1018E0004FEA8C554FEA910704EB9C2406FB07FC5A
:1018F0004FEA1C4C0CFB0BF7B0EBC74072EB5732B6
:1019000003FB0CF734BFA2EBC742B2EBC74261EB5B
:1019100057310CFB0EF7B0EBC70072EB57720CFBA4
:1019200008F734BFA2EBC702B2EBC70261EB5771F5
:1019300015EB4C254FEA816141EA92114FEA826230
:101940004FEAD13742EA901206FB07FC44F100044B
:101950004FEA80604FEA1C4C0CFB0BF7D21B03FBD9
:101960000CF761EB07010CFB0EF7B0EB074072EBD5
:1019700017420CFB08F734BFA2EB0742B2EB074259
:1019800061EB174115EB1C154FEA813141EA924199
:101990004FEA823242EA90424FEA80304FEA0C76B8
:1019A00044F1000448EA03434EEA0B484FF0000EAE
:1019B000B2EB080C71EB030724BF624639464EEBCD
:1019C0000E0E4FF0000B0018524149414BEB0B0B30
:1019D000B2EB080C71EB03077BF1000B24BF6246EE
:1019E00039464EEB0E0E4FF0000B001852414941A4
:1019F0004BEB0B0BB2EB080C71EB03077BF1000B0D
:101A000024BF624639464EEB0E0E51EA020718BF5C
:101A100046F0010616EB0E7655F1000254F1000176
:101A200003D5BDE88901BDE80088BDE88901BDE8AE
:101A30000048B619524141EB0101A3F1010370477F
:101A400080807F7E7D7C7B7A7978777676757473FB
:101A5000727171706F6E6E6D6C6C6B6A6A696868BA
:101A6000676666656464636362616160605F5F5E50
:101A70005E5D5D5C5C5B5B5A5A59595858575756C6
:101A8000565555555454535352525251515050502B
:101A90004F4F4F4E4E4D4D4D4C4C4C4B4B4B4A4A7D
:101AA0004A494949484848474747474646464545C1
:101AB00045444444444343434342424242414141FA
:101AC000002B9C4630D477002BD01CB54FEA37074B
:101AD00003B44FF010004FF01001BAF1000F06D020
:101AE000BCF1000FDCBF40F0080040F008014FF0EF
:101AF00000000FBCBDE810400BF1010BBBF1010F62
:101B000008BF5FEA170722BF12F1010211F10101BC
:101B10004FF0004143F1000300F0004043EA0000B1
:101B20007047F9D35708D0E746EA064613F1400F4D
:101B30004FEA16461FDD13F1200FDFBF16430A469A
:101B4000002120335B42BED0C3F1200746EA06469F
:101B500002FA07F74FEA164646EA0706C3F12007DE
:101B600022FA03F201FA07F721FA03F14FF000031A
:101B700042EA0702A7E746EA020646EA06464FEAB5
:101B8000164646EA0106BCBF46EA0646360C4FF04A
:101B900000034FF000024FF0000194E72DE9804C64
:101BA0009A46934670B491E8380007C831EA400C71
:101BB00048BF34EA430C03D5FFF7E6FDFFF780FF8B
:101BC000F0BCBDE8008C2DE9804C9A46934670B479
:101BD00091E8380007C810F0804F08BF13F0804F1D
:101BE00003D100F005F8FFF76BFFF0BCBDE8008CF7
:101BF00020F07F4780EA030023F07F4C07EB0C03C3
:101C0000A3F57C5300F00040A3F1FE0392F0000F17
:101C100000F0B38095F0000F00F077802DE90149C6
:101C20004FEA11404FEA144621EA004800FB06FC47
:101C300024EA064708FB06F607FB08F800FB07F74F
:101C400018EB06484CEB164C4FEA124B18EB0748C2
:101C50004FEA15464CEB174022EA0B4E0BFB06FCF5
:101C600025EA06470EFB06F607FB0EFE0BFB07F701
:101C70001EEB064E4CEB164C4FF000061EEB074ECB
:101C80004CEB174B18EB0B0840F1000018EB0E0B58
:101C900058EB000840F100008F1A4FF000013CBFE4
:101CA000C943661B14BFB5EB040C00213CBFC943FC
:101CB000F61B4FEA17444EEA8E0E27EA04454FEA18
:101CC0001C4704FB07622CEA074C05FB07F70CFBDB
:101CD00005F604FB0CFC16EB074642EB174216EB2D
:101CE0000C4642EB1C421BEB060658EB020241413C
:101CF00046EA9E0601D5BDE80189B619524141EB7D
:101D00000101A3F10103BDE801894FEA14454FEA3F
:101D1000114724EA054621EA074C05FB07F406FBB8
:101D200007F70CFB06F105FB0CFC11EB074144EB3C
:101D300017444FEA124711EB0C4144EB1C4422EAD2
:101D4000074C05FB07F206FB07F70CFB06F605FB45
:101D50000CFC16EB074642EB174216EB0C4642EB27
:101D60001C456A1854F1000148BF7047B61952412A
:101D700041EB0101A3F10103704795F0000F37D04B
:101D80004FEA11424FEA144721EA024624EA074C7F
:101D900002FB07F106FB07F70CFB06F402FB0CFC49
:101DA00014EB074441EB17414FEA154714EB0C4481
:101DB00041EB1C4125EA074C02FB07F506FB07F740
:101DC0000CFB06F602FB0CFC16EB074645EB174531
:101DD00016EB0C4645EB1C42121951F1000148BFAD
:101DE0007047B619524141EB0101A3F1010370475D
:101DF0004FEA14454FEA114724EA054621EA074C09
:101E000005FB07F106FB07F70CFB06F24FF0000697
:101E100005FB0CFC12EB074241EB174112EB0C42A5
:101E200051EB1C4148BF7047921841EB0101A3F1EF
:101E30000103704711F09EFB704730B5034614460E
:101E40000022DA680022D1E9000540EA05200D8968
:101E500040EA05400D7B40EA05600243DA6000205D
:101E600030BD30B50346144600229A680022D1E9FD
:101E7000000540EA05200D8940EA05400D7B40EA57
:101E8000056002439A60002030BD000010B5024694
:101E9000002313680A480340486840F008008C6833
:101EA0002043CC6820430C6920434C6940EA44201D
:101EB0008C6940EA443003431360002010BD0000E9
:101EC0008101F0FF70B504461D460023B5F5804F33
:101ED00013D154F822300C480340D1E9000640EAFF
:101EE00006108E6840EA06208E8940EA06408E6918
:101EF0003043034344F8223003E06FF0704044F86D
:101F00002200002070BD00000000F0CF10B5024696
:101F10000023086852F820301B480340D1E901042F
:101F20002043CC6820430C6920434C6920438C69D2
:101F30002043CC6920430C6A20434C6A20438C6ABE
:101F40002043CC6A20430C6B20438C6B20434C6BAA
:101F5000204303438868082801D143F04003086800
:101F600042F82030086BB0F5801F05D1086818B121
:101F700010680C6B20431060086818B110684C6B37
:101F800020431060002010BD8004C0FF30B5034620
:101F900014460022601C53F8202002F04042D1E990
:101FA000000540EA05108D6840EA05208D8940EA69
:101FB0000545088A401E45EA0055087D801E45EA11
:101FC00000608D6928430243601C43F82020186894
:101FD00000F48010B0F5801F07D1586820F470021B
:101FE000088A401E42EA00525A60002030BD30B5D7
:101FF0000246002300240868012816D013686FF3F6
:102000000E03D1E901052843CD6828430D69284313
:102010004D6928438D692843CD6928430D6A2843BB
:102020004D6A28430343136019E0136823F4F8430F
:10203000D1E9070528434D6A2843034354686FF3E9
:102040000E04D1E901052843CD6828430D692843D2
:102050004D6928438D692843044313605460002070
:1020600030BD0246506940EA41005061002070478F
:1020700018B5034600200090D1E9000420438C6885
:10208000641E40EA4410CC6840EA44200090009866
:102090001861002018BD000070B5034615460022E7
:1020A0000024012D1FD09A6802F070420868401E7B
:1020B0004E68761E40EA06168868401E46EA0026EC
:1020C000C868401E46EA0036088A401E46EA0046B6
:1020D000888A401E46EA0056087E401E46EA006096
:1020E00002439A6022E09A6811480240C868401E84
:1020F0000603888A401E46EA00500243DC6804F06A
:1021000070440868401E4E68761E40EA06168868CD
:10211000401E46EA0026088A401E46EA0046087E1F
:10212000401E46EA006004439A60DC60002070BDF7
:10213000FF0F0FFF38B504464FF0AA300090094951
:10214000897901FB04F004236A46002103F0D8FFDB
:10215000044989796143481C04236A46002103F03D
:10216000CFFF38BD50FF04202DE9FC4704460D4643
:1021700000275DE04FF0000820E001A83049009002
:10218000B1F802904FEAE97109EB91718B102C497B
:10219000897901FB04F02A46002103F0E9FD284972
:1021A0004888C11700EB9171BDF80420B2EBA10F74
:1021B00000D007E008F101001FFA80F8204880797C
:1021C0004045DADC00BF1E488079404502D100203E
:1021D000BDE8FC87204603F023FB064626B13946BE
:1021E00018A0FEF751F921E0681CF8B10020019019
:1021F00016E01349B1F802904FEAE97109EB9171C9
:102200008B100F498979BDF8042004FB01200022BE
:10221000114603F03FFFBDF80400401C80B201905E
:1022200007488079BDF804108842E2DC781C87B248
:10223000032F9FDB214609A0FEF726F90120C7E7FF
:1022400050FF04206572726F7220657261736520A1
:10225000626C6F636B3A25640D0A00006261642052
:10226000626C6F636B20636865636B65643A2564B9
:102270000D0A000038B50446002000900F49897906
:1022800001FB04F001236A46002103F0B9FD9DF82B
:102290000000FF2810D1094989796143481C0123B6
:1022A0006A46002103F0ACFD9DF80000FF2801D133
:1022B000002038BD0120FCE70220FAE750FF04208F
:1022C0002DE9FE4F81460F4692461D460024002010
:1022D00002908046019000263B488079B9FBF0F8D7
:1022E00039488079B9FBF0F100FB1190019000BFF3
:1022F000404600F0E1F8064633484089B04202D239
:102300000120BDE8FE8F00243AE00198844221D3E9
:1023100005B32D484088C01BA84205D22A484088F2
:10232000C01B1FFA80FB01E01FFA85FB264ACDF88F
:1023300000B0927906FB0241234A927908FB0240E1
:1023400053463A4603F074F802900027DA44A5EBAE
:102350000B050AE01C4A927906FB02411A4A92795F
:1023600008FB024003F06EF90290029830B130464B
:10237000FFF7E0FE012000F029F8B9E7601C84B205
:1023800011488079A042C0DC0F488079A04219D161
:10239000304600F0F7FA404603F042FA00240CE021
:1023A0000948406930F81400404504D1064949699C
:1023B00021F8146005E0601C84B203484089A04203
:1023C000EEDC00BF00209CE750FF0420F8B5054676
:1023D0000026002406E04FF6FF703049496921F8D5
:1023E0001400641C2D484089A042F4D800202B49D9
:1023F0008881002433E02949897901FB04F0042312
:102400006A46002103F0FCFC9DF80000FF2809D17A
:1024100045B1224989796143481C01236A4600215C
:1024200003F0EEFC9DF80000FF2813D19DF8020098
:102430009DF8031000EB012618484089B04203D9EB
:102440001649496921F8164014488089401C1349EF
:10245000888103E0214612A0FEF716F8641C0F489D
:102460004089A042C7D800240BE00C48406930F8EE
:1024700014000A494989884202DB0849CC8104E0FA
:10248000641C06484089A042EFD800BF0348C089B9
:10249000642801DA0220F8BD0020FCE750FF042088
:1024A00062616420626C6F636B20696E6465783A68
:1024B00025640D0A0000000070B505460024184888
:1024C0004089401E17490968884204D2144840894F
:1024D000401E1449086005F001011248006800F030
:1024E00023F80446601C90B90D484089401E0D49F0
:1024F000096888420BD90A484089401E094908608A
:1025000005F001010748006800F00EF80446601C61
:1025100010B94FF0FF3070BD024804602046FAE762
:1025200050FF042030010220F8B505460E46002079
:10253000009000246C1C14E0601E00F00100B0420A
:102540000ED1611E094A927901FB02F004236A460A
:10255000002103F055FC0098401C08B9601EF8BD2E
:10256000641E002CE8D1601EF9E7000050FF042033
:10257000F8B5002600202D498881002417E0204668
:10258000FFF778FE05468DB9204603F049F9054668
:102590003DB1214626A0FDF777FF2046FFF7CAFD93
:1025A00004E022488089401C20498881641C1F481F
:1025B0004089A042E3D81D48818921A0FDF764FF2E
:1025C0001A488089642801DA0120F8BD17488089FB
:1025D000C0EB401000EB4000642190FBF1F60020BE
:1025E0000090002415E02046FFF744FE05467DB923
:1025F0000E49897901FB04F002236A46194603F06B
:102600007FFD0098401C00900098B04200D104E08B
:10261000641C06484089A042E5D800BF0120FFF7AE
:10262000D5FE08B10220D0E70020CEE750FF0420FD
:1026300042616420626C6F636B3A25640D0A00008E
:10264000676F6F645F626C6F636B6E756D3A256464
:102650000D0A000010B503F03DF908B1012010BDCE
:102660001F48406920B11E48416900202BF034F812
:102670001B484089410000202BF040F81849486170
:102680000A4652895100164A5069FEF7CBFA14489F
:10269000406908B90120E2E70120FFF797FE0446F0
:1026A00064B110A0FDF7F0FEFFF762FF0446002CB6
:1026B00013D012A0FDF7E8FE0220D0E708484189B8
:1026C00013A0FDF7E1FE0648818917A0FDF7DCFEA7
:1026D0000348C18919A0FDF7D7FE0020BFE700001D
:1026E00050FF0420666F726D6174206E616E64200D
:1026F000666C6173682E2E2E0D0A0000666F726D77
:102700006174206661696C6564210D0A0000000037
:10271000746F74616C20626C6F636B206E756D3AC0
:1027200025640D0A00000000676F6F6420626C6F03
:10273000636B206E756D3A25640D0A0076616C69D5
:102740006420626C6F636B206E756D3A25640D0AB0
:1027500000000000014600220648C089884202D2DB
:102760004FF6FF7070470348406930F8112010465B
:10277000F8E7000050FF04202DE9FF4F83B0144616
:102780009A460026002500BF97E04E48408890FBFF
:10279000F4F04C498979484304992944B1FBF0F09D
:1027A00002900298FFF7D6FF834646484189594573
:1027B00003D8012007B0BDE8F08F4248408890FB65
:1027C000F4F040498979484304992944B1FBF0F277
:1027D00000FB1210604301903A4841880198B0FB19
:1027E000F1F0384989790BFB010836484188019896
:1027F000B0FBF1F201FB120932484088A0EB09005E
:10280000B0FBF4F087B2AAEB0500B84202D2AAEB03
:10281000050087B207FB04F083B21FFA89F1404636
:10282000039A03F047F90646032E39D107FB04F05B
:1028300083B21FFA89F14046039A03F03BF906463A
:10284000032E2DD107FB04F31FFA89F14046039AAA
:10285000FFF736FD1B488079B8FBF0F0311F009080
:10286000FFF782FC06467EB916488079B8FBF0F087
:1028700000210090FFF778FC064612488079B8FBEB
:10288000F0F0009002F0CCFF4EB10E488079B8FB1A
:10289000F0F00090FFF74EFC0120FFF797FD0026B7
:1028A000042E00D100260EB1022083E7039804FB1A
:1028B00007000390781E05446D1C5545FFF465AF75
:1028C000002077E750FF04202DE9F0474FF0000883
:1028D0002B48418900202AF011FF054602F0D0FF65
:1028E000002423E04FF0FF312046FFF73DFC064671
:1028F00016B10120285518E000202855002710E0C7
:102900001F49B1F802904FEAE97109EB91718B1000
:102910001B49897904FB01700022114603F0BAFBC0
:102920007F1C17488079B842EAD8641C1448408953
:10293000A042D7D800240DE0285D50B900212046E0
:10294000FFF712FC064616B10120285501E008F1F8
:102950000108641C0A484089A042EDD802F090FFAB
:10296000002405E0285D10B12046FFF7E3FB641C5E
:1029700003484089A042F5D84046BDE8F0870000F2
:1029800050FF042038B50446CC20009000250649AD
:10299000897901FB04F001236A46194603F0B0FB74
:1029A0000546284638BD000050FF04202DE9FF4FA2
:1029B00087B014469A464FF0000B0025681E02901F
:1029C00000BFA7E05648408890FBF4F0544989794D
:1029D000484308992944B1FBF0F005900598FFF7AA
:1029E000B9FE06464E484189B14203D801200BB0DA
:1029F000BDE8F08F4A48408890FBF4F04849897957
:102A0000484308992944B1FBF0F200FB12106043DF
:102A10000390434841880398B0FBF1F0404989791D
:102A200006FB010004903E4841880398B0FBF1F298
:102A300001FB12093A484088A0EB090080B20690D9
:102A4000BDF8180090FBF4F080B20690AAEB0500E8
:102A500087B2BDF81800874201DBBDF8187007FB8C
:102A600004F806A81FFA89F1C8F38F034FF0FF326C
:102A70000090049803F07CF98346BBF1000F01D06D
:102A80000220B4E7BDF81800B0EB980F09D11FFA87
:102A900088F31FFA89F1079A049803F033FA834602
:102AA00001E04FF0010BBBF1000F07D10298B042DB
:102AB00004D03046FFF766FF83460296BBF1000F55
:102AC00022D0174880791649498848430399401A0B
:102AD000B0FBF4F080B20690AAEB050087B2BDF817
:102AE0001800874201DBBDF8187007FB04F81FFAD5
:102AF00089F14346079A0498FFF7E2FB8346BBF14E
:102B0000000F01D0032072E7781E05440798404467
:102B100007906D1C5545FFF455AF002067E7000096
:102B200050FF042070B50446A56D00F089F90646F3
:102B300094F83500022808D08020606500BF00208E
:102B400084F8340000BF012070BD2068006820F0C8
:102B50001600216808602068406920F08000216824
:102B60004861206C08B9A06C28B12068006820F08A
:102B70000800216808602068006820F001002168D2
:102B800008600FE000F05CF9801B05280AD92020BE
:102B9000606500BF002084F8340000BF032084F883
:102BA0003500D1E72068006800F001000028E9D175
:102BB00094F85C103F208840A86000BF002084F893
:102BC000340000BF012084F835000020BCE7014636
:102BD00091F83500022803D0802048650120704715
:102BE000052081F835000868006820F001000A68B7
:102BF00010600020F3E70146486D7047F8B50246C3
:102C00000B46002100250024002000BFE4E001263F
:102C100006FA01F51E6806EA0504AC4271D15E6849
:102C2000012E08D05E68022E05D05E68112E02D0FB
:102C30005E68122E13D190684F000326BE40B04349
:102C40004F00DE68BE4030439060506801268E40E1
:102C5000B0431E79C6F300168E4030435060D068F2
:102C60004F000326BE40B0434F009E68BE40304335
:102C7000D0605E68022E02D05E68122E13D1CF089B
:102C800002F1200656F827004E07F70E0F26BE4029
:102C9000B0434F07FF0E1E69BE403043CF0802F11C
:102CA000200646F8270010684F000326BE40B043B8
:102CB0001E7906F003064F00BE40304310605E6888
:102CC00006F08056B6F1805FA8D100BF444E36684A
:102CD00046F48046424F3E603E46366806F48046E3
:102CE000009600BF00BF3F4E8F0856F827008E07A2
:102CF000370F0F26BE40B0433B4EB24202D10026F2
:102D00002EE068E0394EB24201D1012628E0384E6B
:102D1000B24201D1022623E0364EB24201D103264F
:102D20001EE0354EB24201D1042619E0334EB242C4
:102D300001D1052614E0324EB24201D106260FE041
:102D4000304EB24201D107260AE02F4EB24201D1E5
:102D5000082605E02D4EB24201D1092600E00A26E0
:102D60008F073F0FBE4030431E4E8F0846F82700A6
:102D7000274E3068A0435E6806F48036B6F5803F83
:102D800000D12043224E3060361D3068A0435E687B
:102D900006F40036B6F5003F00D120431C4E361D28
:102DA0003060361D3068A0435E6806F48016B6F5C4
:102DB000801F00D12043164E08363060361D306823
:102DC000A0435E6806F40016B6F5001F00D120434C
:102DD0000F4E0C363060491C1029FFF418AFF8BDB7
:102DE000443802400838014000000240000402401C
:102DF00000080240000C0240001002400014024093
:102E000000180240001C0240002002400024024042
:102E1000003C0140024613690B400BB1012000E069
:102E20000020704742690A4012B10A04826100E042
:102E3000816170470AB1816101E00B0483617047D1
:102E40000148006870470000C8000220034800687D
:102E5000034909780844014908607047C800022006
:102E6000D000022010B50A48006840F400700849FC
:102E700008600846006840F480700860052000F093
:102E800043FB0F2000F006F800F056FA002010BDBA
:102E9000003C024070B504460E4800784FF47A7149
:102EA000B1FBF0F00C490968B1FBF0F5284601F0E0
:102EB0005DFC08B1012070BD102C07D20022214614
:102EC000501E00F0E3FA0548046001E00120F2E73B
:102ED0000020F0E7D000022050000220CC000220A9
:102EE00070B504460E46154600BF94F8A0000128B0
:102EF00001D1022070BD012084F8A00000BF022093
:102F000084F8A10005EB850101EBC50204F138014D
:102F100001EB820034223146FDF752FE2A4631464B
:102F2000204602F01CF901202168486284F8A100C3
:102F300000BF002084F8A00000BF00BFDAE7000057
:102F400070B504460CB9012070BD94F8A10028B9F1
:102F5000002084F8A000204600F07EF8022084F8CB
:102F6000A1002068806920F0704021688861D4E960
:102F700001010843E1680843216908432168896920
:102F800008432168886120688068324908402168C8
:102F90008860A08A050420688068A16929430843E5
:102FA000216888602068C0682A4908402168C86094
:102FB000A08B05042068C068216A29430843216862
:102FC000C860206800692349084021680861A08C16
:102FD000050420680069A16A294308432168086143
:102FE000206840691B49084021684861A08D05049C
:102FF00020684069216B294308432168486194F89F
:103000003500050294F8360006042068C06A00F016
:103010007F402168C86246EA050094F834100843EE
:103020002168C96A08432168C8622068406B40F083
:103030000600216848632068806940F0010021682B
:1030400088610020C4F8A400012084F8A1000020B9
:103050007AE7000000F800F010B586B0044600BF23
:103060004748006840F080604549086008460068AD
:1030700000F08060009000BF00BF00BF40481438DF
:10308000006840F400003E491439086008460068B2
:1030900000F40000009000BF00BF00BF08460068B9
:1030A00040F0020008600846006800F0020000904E
:1030B00000BF00BF00BF0846006840F02000086065
:1030C0000846006800F02000009000BF00BF00BF6D
:1030D0000846006840F0400008600846006800F0BC
:1030E0004000009000BF00BF00BF0846006840F0ED
:1030F000800008600846006800F08000009000BF73
:1031000000BF00BF0846006840F4807008600846B1
:10311000006800F48070009000BF00BF2020019084
:103120000120029003900320049001A91548FFF7A5
:1031300065FD4FF480600190022002900020039012
:10314000032004900E20059001A90F48FFF756FDBB
:103150004FF40C60019001A90C48FFF74FFD4FF4AC
:103160007E40019001A90A48FFF748FD40F2F76050
:10317000019001A90748FFF741FD06B010BD00000E
:10318000443802400004024000140240001802408B
:10319000001C0240002002402DE9F04104460E468A
:1031A0001746984600BF94F8A000012802D10220DB
:1031B000BDE8F081012084F8A00000BF022084F85F
:1031C000A10008EB880000EBC80104F1380000EB17
:1031D00081052E60A86A30446860AF60E86A3844B0
:1031E000E86042462946204601F0B9FF01202168E7
:1031F000486284F8A10000BF002084F8A00000BF4E
:1032000000BFD5E72DE9F04104460E461746984623
:1032100000BF94F8A000012802D10220BDE8F0818F
:10322000012084F8A00000BF022084F8A10008EB70
:10323000880000EBC80104F1380000EB8105286824
:1032400030446860A8683844E860AE62EF62424685
:103250002946204601F083FF01202168486284F856
:10326000A10000BF002084F8A00000BF00BFD5E788
:103270004178154A11600178F9B1121D4168116059
:10328000017B0907C27A41EA0261827A41EAC241BE
:10329000427B41EA8241827B41EA4241C27B41EA70
:1032A0000241427A41EA0221027A41EA420102786D
:1032B0001143054A0832116005E00021024A121D3F
:1032C0001160121D1160704798ED00E000BF00BF53
:1032D00000BFBFF35F8F00BF00BF00BF054800689D
:1032E00020F48030034908600020024970310860F2
:1032F0007047000024ED00E040F001010D4A11602C
:103300000C497039096841F480310A4A703A1160F9
:1033100000BF00BF00BFBFF34F8F00BF00BF00BFA3
:1033200000BF00BF00BFBFF36F8F00BF00BF00BF73
:103330007047000094ED00E0704770B504460E46FB
:1033400015460CB9012070BD94F8210028B9002061
:1033500084F82000204600F019F8211D2068FEF7AF
:1033600095FD3146D4E90002FEF77BFD2946D4E9FC
:103370000002FEF762FD2068006840F0040021684A
:103380000860012084F821000020DCE710B586B039
:10339000044600BF3148006840F001002F49086032
:1033A0000846006800F00100009000BF00BF00BFA9
:1033B0002A480838006840F00800284908390860A1
:1033C0000846006800F00800009000BF00BF00BF82
:1033D0000846006840F0100008600846006800F0E9
:1033E0001000009000BF00BF00BF0846006840F01A
:1033F000400008600846006800F04000009000BFF0
:1034000000BF402001900020029001200390032083
:10341000049001A91248FFF7F1FB4FF400700190EE
:103420000220029000200390032004900C200590BD
:1034300001A90C48FFF7E2FB4DF633000190002094
:10344000039001A90648FFF7D9FB4FF4F060019003
:1034500001A90548FFF7D2FB06B010BD383802407D
:10346000000C0240001802400010024001460846CD
:10347000002809DB00F01F0301229A4043099B004A
:1034800003F1E023C3F8002100BF70472DE9F05F8E
:1034900080460D461646002703F070FB0746394666
:1034A0002A46334601F00700C0F1070ABAF1040FBB
:1034B00002D94FF0040A01E0C0F1070AD14600F139
:1034C000040ABAF1070F02D24FF0000A01E0A0F19E
:1034D000030AD4464FF0010A0AFA09FAAAF1010ACE
:1034E0000AEA020A0AFA0CFA4FF0010B0BFA0CFB7B
:1034F000ABF1010B0BEA030B4AEA0B0421464046F1
:1035000003F044FBBDE8F09F00BF00F00702064B4C
:1035100019684FF6FF031940044B0B4343EA02219D
:10352000014B196000BF70470CED00E00000FA0588
:1035300038B5002400BF2048006840F080501E4984
:1035400008600846006800F08050009000BF00BF8F
:103550001A48006840F4803018490860FFF770FC92
:10356000044607E0FFF76CFC001BB0F57A7F01D939
:10357000032038BD1148406800F48030B0F5803F2A
:10358000F0D10E48006840F400300C490860FFF7A5
:1035900057FC044607E0FFF753FC001BB0F57A7FA9
:1035A00001D90320E5E70548406800F40030B0F594
:1035B000003FF0D10020DCE74038024000700040BE
:1035C0002DE9F8430446002600250027A846A94611
:1035D000207800F0010088B100BFFE48006820F4A8
:1035E0000000FC49086008460068616B0843F9491F
:1035F000086000BF606B08B94FF00108206800F454
:103600000020B0F5002F13D1F2488430006820F478
:103610004010E16B0843EF4984310860E06BB0F57E
:10362000801F01D14FF00108E06B08B94FF001098C
:10363000206800F48010B0F5801F13D1E548843075
:10364000006820F44000216C0843E249843108609E
:10365000206CB0F5800F01D14FF00108206C08B943
:103660004FF00109206800F08070B0F1807F01D137
:103670004FF00108207800F02000202870D100BF12
:10368000D4483830006840F08050D2493831086062
:103690000846006800F08050009000BF00BFCE4890
:1036A000006840F48070CC490860FFF7C9FB06460B
:1036B00007E0FFF7C5FB801B642802D90320BDE8A3
:1036C000F883C548006800F480700028F1D0C14834
:1036D0006830006800F4407585B3208E00F44070B7
:1036E000A8422BD0BB486830006820F44075B94828
:1036F0006830006840F48030B64968310860084698
:10370000006820F48030086008460560006800F01A
:10371000010098B1FFF794FB064608E0FFF790FB25
:10372000801B41F28831884201D90320C7E7A948AC
:1037300068300068C0F340000028EFD000BF208E42
:1037400000F44070B0F5407F0BD1A248006820F42F
:10375000F810A24A216B114008439E49086006E018
:1037600010E09C48006820F4F8109A4908609948D5
:1037700068300068218EC1F30B0108439549683118
:10378000086000BF207800F01000102810D100BFA2
:1037900090488430006820F080708E498431086041
:1037A00008460068A16B08438A498431086000BF5D
:1037B000208800F48040B0F5804F09D185488830DA
:1037C000006820F44030616E084382498831086007
:1037D000208800F40040B0F5004F09D17D488830C2
:1037E000006820F44020A16E08437A4988310860BF
:1037F000206800F48030B0F5803F09D175488830EA
:10380000006820F44010E16E084372498831086076
:10381000206800F40030B0F5003F09D16D488830D1
:10382000006820F44000216F08436A49883108602D
:10383000207800F04000402809D1664888300068B0
:1038400020F00300616C08436249883108602078E9
:1038500000F08000802809D15E488830006820F0A0
:103860000C00A16C08435B4988310860208800F493
:103870008070B0F5807F09D156488830006820F00C
:103880003000E16C0843534988310860208800F417
:103890000070B0F5007F09D14E488830006820F0F4
:1038A000C000216D08434B4988310860208800F42E
:1038B0008060B0F5806F09D146488830006820F4F8
:1038C0004070616D0843434988310860208800F4E6
:1038D0000060B0F5006F09D13E488830006820F4E0
:1038E0004060A16D08433B4988310860208800F49E
:1038F0008050B0F5805F09D136488830006820F4E8
:103900004050E16D0843334988310860208800F455
:103910000050B0F5005F09D12E488830006820F4CF
:103920004040216E08432B4988310860206800F42C
:103930008000B0F5800F09D126488830006820F05B
:103940008060A16F0843234988310860206800F433
:103950000010B0F5001F0FD11E488830006820F01D
:103960000060E16F08431B4988310860E06FB0F1E7
:10397000006F01D14FF00109207800F008000828FD
:1039800001D14FF00109206800F48020B0F5802FAC
:1039900009D110488830006820F04070616F0843FA
:1039A0000C4988310860206800F40000B0F5000F71
:1039B0000AD108488830006820F08050D4F8801080
:1039C0000843044988310860206800F08060B0F145
:1039D000806F05E00838024000700040FFFCFF0FD8
:1039E00008D1CC48006820F00050D4F88410084377
:1039F000C8490860206800F00060B0F1006F0AD18B
:103A0000C448001F006820F00070D4F888100843F4
:103A1000C049091F0860206800F08050B0F1805F45
:103A20000AD1BC48001F006820F08060D4F88C10D8
:103A30000843B849091F0860B8F1010F03D0206896
:103A4000B0F1007F7ED1B3489038006820F08060EC
:103A5000B04990390860FFF7F3F9064606E0FFF732
:103A6000EFF9801B642801D9032028E6A948903883
:103A70000068C0F3C0600028F1D1207800F0010098
:103A8000B8B1606BA8B9A3480C380068C0F3014511
:103A9000A0480C380068C0F303676068800140EA02
:103AA000054040EA0761207A41EA007099490C39E3
:103AB0000860206800F40020B0F5002F03D1E06B0F
:103AC000B0F5801F09D0206800F48010B0F5801F89
:103AD00024D1206CB0F5800F20D18E480C380068BE
:103AE000C0F301458B480C380068C0F3027760686A
:103AF000800140EA0541207B41EA006040EA07700E
:103B000084490C3908608348001F006820F01F00BA
:103B1000616A491E08437F49091F0860206800F058
:103B20008070B0F1807F17D17A480C380068C0F3FC
:103B3000036578480C380068C0F30277606881013B
:103B4000208A00E036E041EA004040EA056040EAB1
:103B5000077070490C390860206800F00070B0F1FF
:103B6000007F0DD160688101208A41EA0041207BFD
:103B700041EA0061207A41EA007066490C39086028
:103B800064489038006840F080606249903908606D
:103B9000FFF756F9064606E0FFF752F9801B642846
:103BA00001D903208BE55B4890380068C0F3C06002
:103BB0000028F1D0B9F1010F7ED156489038006845
:103BC00020F08050534990390860FFF739F90646D4
:103BD00006E0FFF735F9801B642801D903206EE564
:103BE0004C4890380068C0F340700028F1D120683C
:103BF00000F40020B0F5002F01D1E06B38B120684F
:103C000000F48010B0F5801F22D1206C00BB414829
:103C100008380068C0F301453E4808380068C0F322
:103C200002776069800140EA0541207E41EA006038
:103C300040EA0770374908390860081D006820F419
:103C4000F851A06A401E41EA00203249091F08606D
:103C5000206800F40010B0F5001F19D1E06FB0F13A
:103C6000006F15D12B4808380068C0F30365294858
:103C700008380068C0F3027760698101208C41EA4E
:103C8000004040EA056040EA0770224908390860B0
:103C9000207800F00800082820D11E480838006865
:103CA000C0F303651B4808380068C0F3014760692A
:103CB000800140EA074000E02AE040EA0561207FF9
:103CC00041EA0070134908390860081D006820F4B3
:103CD0004030E16A08430F49091F08600D489038D9
:103CE000006840F080500B4990390860FFF7A8F851
:103CF000064606E0FFF7A4F8801B642801D90320DC
:103D0000DDE4044890380068C0F340700028F1D02A
:103D10000020D4E49038024070B504460D460026D9
:103D20000CB9012070BD5C48006800F00F00A8428B
:103D30000ED25948006820F00F0028435649086009
:103D40000846006800F00F00A84201D00120E9E712
:103D5000207800F0020002281DD1207800F0040035
:103D6000042805D14D48006840F4E0504B490860F4
:103D7000207800F00800082805D14848006840F481
:103D80006040464908604548006820F0F000A1689E
:103D9000084342490860207800F0010090B3606851
:103DA000012807D13D4808380068C0F34040A0B959
:103DB0000120B7E76068022807D138480838006852
:103DC000C0F3406048B90120ACE7344808380068C7
:103DD000C0F3400008B90120A4E73048006820F093
:103DE0000300616808432D490860FFF729F806467B
:103DF00009E0FFF725F8801B41F28831884202D99B
:103E000003208FE707E02548006800F00C00616898
:103E1000B0EB810FEDD12048006800F00F00A84200
:103E20000ED91D48006820F00F0028431A49086089
:103E30000846006800F00F00A84201D0012071E799
:103E4000207800F00400042807D11448006820F40A
:103E5000E050E168084311490860207800F008004C
:103E6000082808D10D48006820F46040216940EA24
:103E7000C1000A49086000F03FF808490968C1F329
:103E80000311074A515CC8400649086006480068AB
:103E9000FFF700F8002045E7003C024008380240E8
:103EA0006835030850000220CC0002200148006859
:103EB000704700005000022000B5FFF7F7FF0449EB
:103EC0000968C1F38221034A515CC84000BD00006B
:103ED000083802407835030800B5FFF7E7FF0449CA
:103EE0000968C1F34231034A515CC84000BD00007B
:103EF00008380240783503082DE9F04700240025F2
:103F00000026A1462548006800F00C0020B10428D6
:103F100005D008283AD105E0DFF8849039E0DFF8D1
:103F2000849036E01D48001F006800F03F041B48E5
:103F3000001F006800F4800078B11A481749091F73
:103F40000968C1F38811A0FB0170014622460023D5
:103F50003846FCF722FA05460EE011480F49091FC2
:103F60000968C1F38811A0FB0170014622460023B5
:103F70003846FCF712FA05460848001F0068C0F3EF
:103F80000140401C4600B5FBF6F902E0DFF8109056
:103F900000BF00BF4846BDE8F08700000838024077
:103FA0000024F40040787D01F8B5044600270CB9E0
:103FB0000120F8BD207800F00100002871D0F948F8
:103FC000006800F00C0004280DD0F648006800F0EE
:103FD0000C00082813D1F348001F006800F480008B
:103FE000B0F5800F0BD1EF4808380068C0F34040AF
:103FF000002869D06068002866D10120D9E700BF99
:104000006068B0F5803F08D1E6480838006840F4A1
:104010008030E449083908602EE0606868B9E148FA
:104020000838006820F48030DE4908390860084606
:10403000006820F4802008601EE06068B0F5A02FC2
:104040000DD1D8480838006840F48020D549083997
:1040500008600846006840F4803008600CE0D148F1
:104060000838006820F48030CE49083908600846D6
:10407000006820F48020086000BF606890B1FEF7FF
:10408000DFFE054606E0FEF7DBFE401B642801D993
:1040900003208EE7C34808380068C0F3404000287A
:1040A000F1D011E0FEF7CCFE054606E0FEF7C8FEB3
:1040B000401B642801D903207BE7BA480838006810
:1040C000C0F340400028F1D1207800F0020002281F
:1040D00069D1B448006800F00C0058B1B1480068DC
:1040E00000F00C0008281CD1AE48001F006800F446
:1040F0008000B0B9AB4808380068C0F3400020B178
:10410000E068012801D0012053E7A648083800687C
:1041100020F0F800216940EAC100A249083908608E
:1041200041E0E06828B39F480838006840F001008B
:104130009C4908390860FEF783FE054606E0FEF755
:104140007FFE401B022801D9032032E7954808383A
:104150000068C0F340000028F1D092480838006899
:1041600020F0F800216940EAC1008E490839086052
:1041700019E08C480838006820F0010089490839A6
:104180000860FEF75DFE054606E0FEF759FE401B9F
:10419000022801D903200CE7824808380068C0F3E0
:1041A00040000028F1D1207800F00800082836D11E
:1041B0006069D0B17B486C30006840F001007949FB
:1041C0006C310860FEF73CFE054606E0FEF738FE5F
:1041D000401B022801D90320EBE672486C300068CE
:1041E000C0F340000028F1D019E06E486C30006840
:1041F00020F001006B496C310860FEF721FE054696
:1042000006E0FEF71DFE401B022801D90320D0E680
:1042100064486C300068C0F340000028F1D1207879
:1042200000F00400042874D15E483830006800F0C3
:10423000805080B900BF5B483830006840F0805043
:104240005849383108600846006800F080500090F6
:1042500000BF00BF01275448006800F48070B0B967
:104260005148006840F480704F490860FEF7E8FD4F
:10427000054606E0FEF7E4FD401B642801D9032053
:1042800097E64948006800F480700028F2D000BF2B
:10429000A068012808D143486830006840F0010058
:1042A0004049683108602DE0A06868B93D48683031
:1042B000006820F001003B4968310860084600684A
:1042C00020F0040008601DE0A06805280DD13548E5
:1042D0006830006840F004003249683108600846E0
:1042E000006840F0010008600CE02E48683000686B
:1042F00020F001002B49683108600846006820F072
:104300000400086000BFA068A8B1FEF799FD05464B
:1043100009E02EE0FEF794FD401B41F2883188420F
:1043200001D9032045E61F4868300068C0F340000B
:104330000028EFD013E0FEF783FD054608E0FEF706
:104340007FFD401B41F28831884201D9032030E6CD
:10435000144868300068C0F340000028EFD1012FF6
:1043600007D110483830006820F080500D493831AE
:104370000860A069002854D00A48006800F00C00CA
:10438000082867D0A06902284CD106480838006880
:1043900020F08070034908390860FEF751FD05469A
:1043A0000BE000000838024000700040FEF748FDB6
:1043B000401B022801D90320FBE53F480068C0F3F9
:1043C00040600028F2D1D4E907010843616A40EA5D
:1043D00081110122A06AC2EB500041EA00412C2069
:1043E000005D41EA00613020005D41EA0070324921
:1043F000091D0860081F006840F08070091F0860F0
:10440000FEF71EFD054606E0FEF71AFD401B0228DA
:1044100001D90320CDE528480068C0F3406000289A
:10442000F2D047E02448006820F0807022490860FC
:10443000FEF706FD054606E0FEF702FD401B0228DA
:1044400001D90320B5E51C480068C0F3406000288E
:10445000F2D12FE01848001D0668A069012827D076
:1044600006F48001E069814222D106F03F01206A12
:1044700081421DD147F6C0703040616AB0EB811FA8
:1044800016D106F440310122A06AC2EB5000B1EB14
:10449000004F0DD106F070612C20005DB1EB006F74
:1044A00006D106F0E0413020005DB1EB007F01D085
:1044B00001207EE500207CE50038024070B504460E
:1044C0000D460CB9012070BD94F82C0028B90020CD
:1044D00084F82D00204600F011F8022084F82C000A
:1044E000211D2068FDF783FD2946D4E90002FDF770
:1044F000D3FD012084F82C000020E4E710B586B03D
:10450000044600BF3E48006840F001003C49086096
:104510000846006800F00100009000BF00BF00BF27
:1045200037480838006840F0040035490839086009
:104530000846006800F00400009000BF00BF00BF04
:104540000846006840F0080008600846006800F06F
:104550000800009000BF00BF00BF0846006840F0A0
:10456000100008600846006800F01000009000BFCE
:1045700000BF00BF0846006840F020000860084601
:10458000006800F02000009000BF00BF00BF084698
:10459000006840F0400008600846006800F04000F5
:1045A000009000BF00BF0D2001900220029001206A
:1045B0000390032004900C20059001A91148FEF7F8
:1045C0001DFB4CF20370019001A90F48FEF716FB8A
:1045D0004FF68370019001A90C48FEF70FFB4FF6D0
:1045E0003F00019001A90A48FEF708FB48F2371086
:1045F000019001A90748FEF701FB06B010BD0000BD
:104600003838024000080240000C0240001002400E
:10461000001402400018024070B504460D4694F89C
:104620002C00022800D170BD022084F82C002946FD
:104630002068FDF716FD012084F82C000020F2E729
:1046400070B504460D46164694F82C00022800D199
:1046500070BD022084F82C00324629462068FDF700
:1046600007FD2868022803D1052084F82C0002E009
:10467000012084F82C000020EAE770B504460E46BD
:1046800015460CB9012070BD94F8450028B90020EA
:1046900084F84400204600F01DF804F10801206869
:1046A000FDF734FC3146A2682068FDF76FFC29460F
:1046B000E36AD4E90102FDF705FCA168206850F81F
:1046C000210040F00100A268216841F8220000208A
:1046D000D9E7000010B586B0044600BF2048006846
:1046E00040F001001E4908600846006800F0010023
:1046F000009000BF00BF00BF19480838006840F0B4
:1047000008001749083908600846006800F00800EA
:10471000009000BF00BF00BF0846006840F01000D6
:1047200008600846006800F01000009000BF00BF5D
:104730004EF2B370019002200290012003900220FB
:1047400004900C20059001A90648FEF757FA4FF691
:104750008070019001A90448FEF750FA06B010BD20
:1047600038380240000C02400010024070B5044688
:104770002546681EB0F1807F01D301200FE0681E3E
:104780004FF0E02148610F214FF0FF3002F0FEF9B9
:1047900000204FF0E021886107200861002070BDF3
:1047A00070477047704710B504460CB9012010BD22
:1047B00094F83D0028B9002084F83C00204600F021
:1047C0000DF8022084F83D00211D206801F0C2FD93
:1047D000012084F83D000020E9E7000038B50446D8
:1047E0000E492068884217D100BF00BF0C480068FE
:1047F00040F010000A4908600846006800F0100008
:10480000009000BF00BF00BF032201213620FEF749
:104810003DFE3620FEF72AFE38BD000000100040A5
:104820004038024001460868C06840F001000B684B
:10483000D86008688068084B00EA0302062A08D09E
:10484000B2F5803F05D00868006840F001000B68B1
:10485000186000207047000007000100704710B585
:10486000044620680069C0F34000D8B12068C068E1
:10487000C0F34000B0B16FF0020021680861012070
:1048800020772068806900F0030018B12046FFF708
:10489000E5FF05E0204600F0BEF8204600F0BCF839
:1048A0000020207720680069C0F38000D8B120681C
:1048B000C068C0F38000B0B16FF0040021680861E7
:1048C000022020772068806900F4407018B12046EB
:1048D000FFF7C4FF05E0204600F09DF8204600F0F9
:1048E0009BF80020207720680069C0F3C000D8B191
:1048F0002068C068C0F3C000B0B16FF00800216844
:104900000861042020772068C06900F0030018B116
:104910002046FFF7A3FF05E0204600F07CF8204684
:1049200000F07AF80020207720680069C0F30010BA
:10493000D8B12068C068C0F30010B0B16FF01000AB
:1049400021680861082020772068C06900F4407061
:1049500018B12046FFF782FF05E0204600F05BF823
:10496000204600F059F8002020772068006900F008
:10497000010058B12068C06800F0010030B16FF04C
:10498000010021680861204600F048F820680069AD
:10499000C0F3C01058B12068C068C0F3C01030B177
:1049A0006FF08000216808612046FFF7FAFE20685A
:1049B0000069C0F3002058B12068C068C0F3C0107F
:1049C00030B16FF48070216808612046FFF7E8FE7F
:1049D00020680069C0F3801058B12068C068C0F337
:1049E000801030B16FF0400021680861204600F06F
:1049F00021F820680069C0F3401058B12068C068F1
:104A0000C0F3401030B16FF02000216808612046EB
:104A1000FFF7C8FE10BD70477047000010B5044690
:104A200003492068884202D1012026F08BFE10BD88
:104A3000001000407047704710B5044620680068B9
:104A400020F49070216808602068806820F00100E0
:104A5000216888602068806800F04000402817D1F5
:104A60002068806820F0400021688860E06E78B19E
:104A70000020E16E0865E06EFEF754F840B1E06E8C
:104A8000FEF7B9F8202803D11020E067032010BDFD
:104A90000020A4F85A000F2021680862206880696D
:104AA00040F00800216888612020A0670020EEE720
:104AB00070B504463949206888426DD1FEF7C0F9C7
:104AC000054637480068281A64280BD835480088FE
:104AD0004FF6FF71884208DA32480088401C31499D
:104AE000088002E001202F4908802D4805602068D9
:104AF000C06900F00800082806D1216808622A4829
:104B00000068401C284908602068C06900F0020065
:104B1000022806D12168086224480068401C234905
:104B200008602068C06900F00400042806D12168EC
:104B300008621F480068401C1D4908602068C06961
:104B400000F0010038B101202168086219480068AE
:104B5000401C1849086013480088142813DB05F12D
:104B6000C800154908602068006820F0200021680E
:104B700008602068806820F0010021688860204675
:104B8000FFF75AFF70BD2046FFF756FF01220B4981
:104B90000B4800F0CFF900BF00BFF3E7004400402E
:104BA0009C000220A0000220880002208C0002202D
:104BB0009000022094000220980002207E00022033
:104BC000145402202DE9F04704462068C569206886
:104BD00006682068876840F60F0005EA0008B8F10B
:104BE000000F0CD105F0200048B106F0200030B1D4
:104BF000206E10B12046216E8847BDE8F087B8F1DD
:104C0000000F7DD007F0010018B906F4907000285D
:104C1000F7D005F0010048B106F4807030B10120F2
:104C200021680862E06F40F00100E06705F00200D3
:104C300048B107F0010030B1022021680862E06F3E
:104C400040F00400E06705F0040048B107F00100FF
:104C500030B1042021680862E06F40F00200E06794
:104C600005F0080060B106F0200010B907F001005F
:104C700030B1082021680862E06F40F00800E0676A
:104C800005F4006050B106F0806038B14FF4006068
:104C900021680862E06F40F02000E067E06F80B3B9
:104CA00005F0200038B106F0200020B1206E10B1D0
:104CB0002046216E8847D4F87C902068806800F0F8
:104CC0004000402802D009F0280030B3204601F00F
:104CD0006CFC2068806800F04000402819D12068F2
:104CE000806820F0400021688860E06E68B121484B
:104CF000E16E0865E06EFDF76AFF10B1E06E01E05D
:104D000011E00FE0016D88470CE02046FFF7D0FE70
:104D100008E02046FFF7CCFE04E02046FFF7C8FE7F
:104D20000020E06769E705F4801050B107F48000C7
:104D300038B14FF48010216808622046FFF77BFEEF
:104D40005BE705F0800040B106F0800028B1606E9E
:104D500010B12046616E88474FE705F0400030B142
:104D600006F0400018B1204601F030FC45E700BFD6
:104D700043E700009365000810B504460CB9012014
:104D800010BDA06900B100E000BF606F28B900202D
:104D900084F87000204600F029F82420606720681D
:104DA000006820F0010021680860204601F088FCBE
:104DB000012800D1E4E7606A10B1204601F036FB1B
:104DC0002068406820F4904021684860206880682E
:104DD00020F02A00216888602068006840F0010007
:104DE00021680860204601F09DFBC9E710B586B038
:104DF00004464B49206888424FD100BF00BF494854
:104E0000006840F40030474908600846006800F434
:104E10000030009000BF00BF00BF00BF00BF41488E
:104E20001038006840F001003E491039086008461B
:104E3000006800F00100009000BF00BF00BF00BF8D
:104E400000BF0846006840F001000860084600689E
:104E500000F00100009000BF00BF00BF04200190DF
:104E60000220029001200390022004900720059068
:104E700001A92D48FDF7C2FE0820019007200590EA
:104E800001A92948FDF7BAFE2620FEF7EFFA032212
:104E900011462620FEF7FAFA40E0244920688842AD
:104EA0003CD100BF1F48006840F480201D490860C5
:104EB0000846006800F48020009000BF00BF00BFDB
:104EC00018481038006840F0020016491039086090
:104ED0000846006800F00200009000BF00BF0815FF
:104EE00001900220029001200390022004900720EC
:104EF000059001A90E48FDF781FE4FF40060019076
:104F00000720059001A90A48FDF778FE2720FEF743
:104F1000ADFA032211462720FEF7B8FA06B010BDFD
:104F20000044004040380240000002400048004079
:104F30000004024010B50346986F202865D101B1E6
:104F40000AB9012010BD00BF93F87000012801D1FB
:104F50000220F7E7012083F8700000BF5965A3F82D
:104F60005820A3F85A200020186600BF9868B0F5B2
:104F7000805F0AD1186920B940F2FF10A3F85C00E5
:104F800020E0FF20A3F85C001CE0986848B918698D
:104F900018B9FF20A3F85C0014E07F20A3F85C00A0
:104FA00010E09868B0F1805F09D1186918B97F20C6
:104FB000A3F85C0006E03F20A3F85C0002E00020BC
:104FC000A3F85C0000BF0020D8672220986718680B
:104FD000806840F001001C68A0609868B0F5805FB0
:104FE00004D1186910B90A48186601E00948186622
:104FF00000BF002083F8700000BF1868006840F40C
:1050000090701C68206000209CE702209AE7000056
:10501000ED6500085966000810B50446444920684B
:10502000884240D102204349087001224249434846
:10503000FFF780FF2068C06900F00800082806D14B
:10504000216808623E480068401C3D4908602068AD
:10505000C06900F00200022806D1216808623948C0
:105060000068401C374908602068C06900F00400EF
:10507000042806D12168086233480068401C324980
:1050800008602068C06900F0010038B10120216883
:1050900008622E480068401C2C49086026490878A0
:1050A0002CF05EFF43E02A49206888423FD103206C
:1050B00020490870012227492748FFF73BFF206855
:1050C000C06900F00800082806D1216808621C4861
:1050D0000068401C1A4908602068C06900F002009E
:1050E000022806D12168086216480068401C15494C
:1050F00008602068C06900F00400042806D1216817
:10510000086211480068401C0F4908602068C069A7
:1051100000F0010038B10120216808620B480068E6
:10512000401C0A4908600B4908782CF019FF10BD93
:1051300000440040800002207E000220145402201F
:10514000880002208C00022090000220940002209F
:10515000004800407F000220945402207047F0B5C0
:105160008E880768FF68C7F30B473E443304066820
:105170008436802707FB0266766806F47047066867
:1051800084364FF0800C0CFB026677600E6807686F
:10519000FF68C7F30B473E44761C1E4307688437FD
:1051A0000CFB02777E608E890768FF68C7F30A07E9
:1051B0003E44330406688436802707FB0266B668DF
:1051C00006F47047066884360CFB0266B7608E688A
:1051D0000768FF68C7F30A073E44761C46EA0307E0
:1051E000066884360CFB0266B76006688436802742
:1051F00007FB0266366926F00707066884360CFB53
:10520000026637610F69066884360CFB02663761F7
:105210003126765C33023226765C34040E7E350607
:1052200006688436802707FB0266B6690027066891
:1052300084360CFB0266B76191F830601E4326434A
:1052400046EA0507066884360CFB0266B761066805
:105250008436802707FB0266766926F0FF0706681A
:1052600084360CFB026677614F69066884360CFB56
:105270000266776106688436802707FB0266F66956
:1052800040F20777BE43076884370CFB0277FE6164
:10529000D1E907763743066884360CFB0266F7616E
:1052A00006688436802707FB0266B66A0027066810
:1052B00084360CFB0266B7624F6A066884360CFBC4
:1052C0000266B7620E690EB9042313E00E69012E5F
:1052D00001D103230EE00E69042E08D00E69022EC0
:1052E00005D00E69032E02D00E69072E01D10223CC
:1052F00000E0012306688436802707FB0266F66A11
:1053000006F0E027066884364FF0800C0CFB02663E
:10531000F762D1E90076F61B5E43F61C0F8D5F4302
:1053200046EA0747066884360CFB0266F7620668A1
:105330008436802707FB0266366BF70AFF02066891
:1053400084360CFB02663763CF6A066884360CFB32
:105350000266376306688436D701F65946F00107BE
:10536000066884364FEAC21C46F80C70F0BD000097
:1053700000BF002201211A48FDF75CFD00BF19485B
:10538000016819A0FBF780F81CA0FBF77DF84FF42B
:105390007A7007F0A7FB1FA0FBF776F84FF47A703E
:1053A00007F0A0FB00BF00BF00BF00BF00BFBFF3FE
:1053B0004F8F00BF00BF00BF1B48006800F4E060D3
:1053C0001A490843001D1849086000BF00BF00BF0C
:1053D000BFF34F8F00BF00BF00BF00BF00BFFDE79E
:1053E00000040240100002205B4D454D5D207374A7
:1053F0006167653D256C750D0A0000004D656D20E7
:10540000416363657373204572726F7221210D0AC7
:1054100000000000536F6674205265736574696EF6
:10542000672E2E2E0D0A00000CED00E00000FA059C
:105430002DE9FE4F8046894617461D460C9C0026E6
:10544000002002900190834600908246794880793E
:10545000B8FBF0F080B2019076488079B9FBF0F0AB
:105460001FFA80FB5846019901EBD1725210A1EB53
:1054700042020BEBD0735B10ABEB43039A4202D0BA
:105480000120BDE8FE8F00206B4908706B49087051
:10549000087081F800804FEA182008704FEA184021
:1054A0000870352064490870002000F003FD0646AE
:1054B0000EB10220E5E7012000F0FCFC06460EB12B
:1054C0000220DEE785205C4908705C490F703812C5
:1054D000087081F800904FEA192008704FEA1940CF
:1054E00008703C2000F012F9E11704EBD151491289
:1054F000A4EB412189B10020029009E015F8010BCD
:105500004FF000410870BDF80800401C80B20290C6
:10551000BDF80800A042F1DB7CE02046E11704EB77
:10552000D151C1F3472100913846F91707EBD1510A
:10553000C1F3472A002636E000F004FE4048006828
:1055400040F040004FF02041C1F880000020029060
:1055500009E015F8010B4FF000410870BDF8080094
:10556000401C80B20290BDF80800B0F5007FF0DB6F
:1055700000BF3348001D006800F040000028F8D04C
:105580002F481430016806EB0A022A481C3040F804
:1055900022104FF02040D0F8800020F04000284931
:1055A0000860701CC6B200988642C5DB214840885E
:1055B000103000EB8A0080B202903C2000F0A6F888
:1055C00085201D490870BDF808001C490870BDF809
:1055D0000800001208703C2000F098F815481C30B4
:1055E00000EB8A05002002900FE0002606E015F887
:1055F000010B4FF000410870701CC6B2042EF6DBA0
:10560000BDF80800401C80B20290BDF80810009858
:105610008142EADB1020084908704FF4487007F017
:105620006BFA00F02DFC402801D0012029E7002072
:1056300027E7000050FF04200000018000000280E6
:10564000800000A02DE9F04104460D464FF000080F
:10565000002600272A488079B4FBF0F086B228485B
:105660008079B5FBF0F087B23846314606EBD1724F
:105670005210A6EB420207EBD0735B10A7EB43037B
:105680009A4202D00120BDE8F08100201D49087037
:105690001D49087008700C70200A0870200C0870F2
:1056A000352018490870002000F004FC8046B8F14D
:1056B000000F01D00220E6E7012000F0FBFB80464E
:1056C000B8F1000F01D00220DDE785200D490870F8
:1056D00000200D49087008700D70280A0870280C09
:1056E00008701020074908704FF4487007F004FA5A
:1056F00000F0C6FB402801D00120C4E70020C2E72B
:1057000050FF0420000001800000028001B502E08B
:105710000098401E009000980028F9D108BD0000B4
:105720002DE9F74F82B0054616460020019000246F
:1057300081460120039900F055F80746002003999F
:1057400000F050F882463146012000F04BF88046C8
:105750003146002000F046F8834687EA0A0080EAD6
:10576000080080EA0B00019040F6FF710198884222
:1057700019D187EA080421460FA0FAF785FE2046D2
:10578000E11704EB51714FEAE109E11704EB5171A4
:10579000C910A4EBC1020121914015F80920514024
:1057A00005F8091006E008A0FAF76EFE012005B022
:1057B000BDE8F08F0020FAE76572726F72706F7348
:1057C0003A25640D0A000000326269742065636343
:1057D000206572726F72206F72206D6F72650D0A94
:1057E0000000000030B502460B460020002113E007
:1057F0000C4601EBD4756D10A1EB4505954209D11E
:1058000023FA01F404F0010424B14D100124AC404A
:105810000444A0B24C1CE1B21829E9DB30BD000001
:1058200010B50446114800691149884201D1E401CC
:1058300005E00E4800690F49884200D1A4016020AC
:105840000D4908700D490C70200A0870200C087072
:10585000D020094908700A2007F044F900F010FB35
:10586000402801D0012010BD0020FCE750FF04209B
:1058700089260048569590DC0000018000000280D7
:1058800070B5002400BF0BE02046FFF7C9FF0546B6
:1058900025B12A46214605A0FAF7F6FD601C84B220
:1058A0000B484089A042EFDC70BD00004572617377
:1058B0006520256420626C6F636B206661696C21D2
:1058C00021E78AB6E68081E4B8BA25640D0A0000B3
:1058D00050FF042000B589B000F078F83248334911
:1058E00008604FF480704860002130488160C160DA
:1058F00001614FF40031416109218161C1610520DD
:1059000005900620069005200790042008900520A9
:10591000019006200290052003900420049001AA23
:1059200005A92248FDF709FD00F09CFA642007F064
:10593000D9F800F08FF81E490861084601691DA0DA
:10594000FAF7A2FD042000F069F8194800691D4922
:1059500088420FD14FF48750154908804FF480508A
:105960004880E02088808020887100010881400004
:10597000488116E00E480069134988420ED14FF461
:1059800004600B4908804FF4006048804020888004
:105990008871400108814000488102E0012009B07F
:1059A00000BD0020FBE70000800000A010FF0420E5
:1059B00050FF04204E414E442049443A2523780D9F
:1059C0000A00000089260048569590DC1FB5FDF7B7
:1059D0007DFC01208DF8000003208DF80100C00738
:1059E00001901B208DF8080000208DF809008DF82B
:1059F0000A0003208DF80B0000208DF80C008DF8B4
:105A00000D008DF80E0001208DF80F006846FDF79F
:105A10002FFC0420FDF770FC1FBD000010B50446EC
:105A2000EF200A490870012009490870C007047076
:105A30000020890308700870087000F021FA4028DF
:105A400001D1002010BD0120FCE700000000018012
:105A5000000002800CB59021144A11700021144AF4
:105A60001170910309788DF80010910309788DF871
:105A70000110910309788DF80210910309788DF8CF
:105A80000310910309788DF804109DF801100906A0
:105A90009DF8022041EA02419DF8032041EA0221DB
:105AA0009DF8042041EA02000CBD000000000180C6
:105AB000000002802DE9FF5F81460F4615461E4615
:105AC00000200390029500BF00200190804682468E
:105AD000002483469049087090490F70381208706E
